{
  "address": "0x1c6d9761A8a066eea9c7134420A2eB89FFbFF9Cb",
  "abi": [
    {
      "anonymous": false,
      "inputs": [
        {
          "indexed": true,
          "internalType": "address",
          "name": "_addr",
          "type": "address"
        }
      ],
      "name": "Deployed",
      "type": "event"
    },
    {
      "anonymous": false,
      "inputs": [
        {
          "indexed": false,
          "internalType": "address",
          "name": "_implementationAuthority",
          "type": "address"
        }
      ],
      "name": "ImplementationAuthoritySet",
      "type": "event"
    },
    {
      "anonymous": false,
      "inputs": [
        {
          "indexed": true,
          "internalType": "address",
          "name": "previousOwner",
          "type": "address"
        },
        {
          "indexed": true,
          "internalType": "address",
          "name": "newOwner",
          "type": "address"
        }
      ],
      "name": "OwnershipTransferred",
      "type": "event"
    },
    {
      "anonymous": false,
      "inputs": [
        {
          "indexed": true,
          "internalType": "address",
          "name": "_token",
          "type": "address"
        },
        {
          "indexed": false,
          "internalType": "address",
          "name": "_ir",
          "type": "address"
        },
        {
          "indexed": false,
          "internalType": "address",
          "name": "_irs",
          "type": "address"
        },
        {
          "indexed": false,
          "internalType": "address",
          "name": "_tir",
          "type": "address"
        },
        {
          "indexed": false,
          "internalType": "address",
          "name": "_ctr",
          "type": "address"
        },
        {
          "indexed": false,
          "internalType": "address",
          "name": "_mc",
          "type": "address"
        },
        {
          "indexed": true,
          "internalType": "string",
          "name": "_salt",
          "type": "string"
        }
      ],
      "name": "TREXSuiteDeployed",
      "type": "event"
    },
    {
      "inputs": [
        {
          "internalType": "string",
          "name": "_salt",
          "type": "string"
        },
        {
          "components": [
            {
              "internalType": "address",
              "name": "owner",
              "type": "address"
            },
            {
              "internalType": "string",
              "name": "name",
              "type": "string"
            },
            {
              "internalType": "string",
              "name": "symbol",
              "type": "string"
            },
            {
              "internalType": "uint8",
              "name": "decimals",
              "type": "uint8"
            },
            {
              "internalType": "address",
              "name": "irs",
              "type": "address"
            },
            {
              "internalType": "address",
              "name": "ONCHAINID",
              "type": "address"
            },
            {
              "internalType": "address[]",
              "name": "irAgents",
              "type": "address[]"
            },
            {
              "internalType": "address[]",
              "name": "tokenAgents",
              "type": "address[]"
            },
            {
              "internalType": "address[]",
              "name": "complianceModules",
              "type": "address[]"
            },
            {
              "internalType": "bytes[]",
              "name": "complianceSettings",
              "type": "bytes[]"
            }
          ],
          "internalType": "struct ITREXFactory.TokenDetails",
          "name": "_tokenDetails",
          "type": "tuple"
        },
        {
          "components": [
            {
              "internalType": "uint256[]",
              "name": "claimTopics",
              "type": "uint256[]"
            },
            {
              "internalType": "address[]",
              "name": "issuers",
              "type": "address[]"
            },
            {
              "internalType": "uint256[][]",
              "name": "issuerClaims",
              "type": "uint256[][]"
            }
          ],
          "internalType": "struct ITREXFactory.ClaimDetails",
          "name": "_claimDetails",
          "type": "tuple"
        }
      ],
      "name": "deployTREXSuite",
      "outputs": [],
      "stateMutability": "nonpayable",
      "type": "function"
    },
    {
      "inputs": [],
      "name": "getImplementationAuthority",
      "outputs": [
        {
          "internalType": "address",
          "name": "",
          "type": "address"
        }
      ],
      "stateMutability": "view",
      "type": "function"
    },
    {
      "inputs": [
        {
          "internalType": "string",
          "name": "_salt",
          "type": "string"
        }
      ],
      "name": "getToken",
      "outputs": [
        {
          "internalType": "address",
          "name": "",
          "type": "address"
        }
      ],
      "stateMutability": "view",
      "type": "function"
    },
    {
      "inputs": [],
      "name": "owner",
      "outputs": [
        {
          "internalType": "address",
          "name": "",
          "type": "address"
        }
      ],
      "stateMutability": "view",
      "type": "function"
    },
    {
      "inputs": [
        {
          "internalType": "address",
          "name": "_contract",
          "type": "address"
        },
        {
          "internalType": "address",
          "name": "_newOwner",
          "type": "address"
        }
      ],
      "name": "recoverContractOwnership",
      "outputs": [],
      "stateMutability": "nonpayable",
      "type": "function"
    },
    {
      "inputs": [],
      "name": "renounceOwnership",
      "outputs": [],
      "stateMutability": "nonpayable",
      "type": "function"
    },
    {
      "inputs": [
        {
          "internalType": "address",
          "name": "implementationAuthority_",
          "type": "address"
        }
      ],
      "name": "setImplementationAuthority",
      "outputs": [],
      "stateMutability": "nonpayable",
      "type": "function"
    },
    {
      "inputs": [
        {
          "internalType": "string",
          "name": "",
          "type": "string"
        }
      ],
      "name": "tokenDeployed",
      "outputs": [
        {
          "internalType": "address",
          "name": "",
          "type": "address"
        }
      ],
      "stateMutability": "view",
      "type": "function"
    },
    {
      "inputs": [
        {
          "internalType": "address",
          "name": "newOwner",
          "type": "address"
        }
      ],
      "name": "transferOwnership",
      "outputs": [],
      "stateMutability": "nonpayable",
      "type": "function"
    }
  ],
  "transactionHash": "0x335a895ee2f452d0d6cdafbf0335a845b48d4c58e9e83367d37b57bc018e1c7d",
  "args": [],
  "numDeployments": 1,
  "solcInputHash": "f69367090d7184c7f33f2a160d9a791d",
  "bytecode": "0x608060405234801561001057600080fd5b5061001a3361001f565b61006f565b600080546001600160a01b038381166001600160a01b0319831681178455604051919092169283917f8be0079c531659141344cd1fd0a4f28419497f9722a3daafe3b4186f6b6457e09190a35050565b61598c8061007e6000396000f3fe60806040523480156200001157600080fd5b50600436106200009f5760003560e01c806392dd9d65116200006e57806392dd9d651462000102578063c1733f681462000119578063cf753d371462000130578063f2fde38b1462000147578063fb88d79c146200015e57600080fd5b80632d5f118714620000a457806350b0183814620000cd578063715018a614620000e65780638da5cb5b14620000f0575b600080fd5b6001546001600160a01b03165b6040516001600160a01b03909116815260200160405180910390f35b620000e4620000de3660046200194c565b62000195565b005b620000e462000200565b6000546001600160a01b0316620000b1565b620000e4620001133660046200198a565b62000218565b620000b16200012a366004620019b1565b6200062f565b620000e46200014136600462001ad3565b62000666565b620000e4620001583660046200198a565b62001519565b620000b16200016f36600462001b73565b80516020818301810180516002825292820191909301209152546001600160a01b031681565b6200019f62001598565b60405163f2fde38b60e01b81526001600160a01b03828116600483015283169063f2fde38b90602401600060405180830381600087803b158015620001e357600080fd5b505af1158015620001f8573d6000803e3d6000fd5b505050505050565b6200020a62001598565b620002166000620015f4565b565b6200022262001598565b6001600160a01b0381166200027e5760405162461bcd60e51b815260206004820152601f60248201527f696e76616c696420617267756d656e74202d207a65726f20616464726573730060448201526064015b60405180910390fd5b60006001600160a01b0316816001600160a01b031663709bc7f36040518163ffffffff1660e01b8152600401602060405180830381865afa158015620002c8573d6000803e3d6000fd5b505050506040513d601f19601f82011682018060405250810190620002ee919062001bb4565b6001600160a01b0316141580156200037d575060006001600160a01b0316816001600160a01b0316636ff6e83f6040518163ffffffff1660e01b8152600401602060405180830381865afa1580156200034b573d6000803e3d6000fd5b505050506040513d601f19601f8201168201806040525081019062000371919062001bb4565b6001600160a01b031614155b801562000401575060006001600160a01b0316816001600160a01b0316631ee9ce8b6040518163ffffffff1660e01b8152600401602060405180830381865afa158015620003cf573d6000803e3d6000fd5b505050506040513d601f19601f82011682018060405250810190620003f5919062001bb4565b6001600160a01b031614155b801562000485575060006001600160a01b0316816001600160a01b0316639e3e7bb96040518163ffffffff1660e01b8152600401602060405180830381865afa15801562000453573d6000803e3d6000fd5b505050506040513d601f19601f8201168201806040525081019062000479919062001bb4565b6001600160a01b031614155b801562000509575060006001600160a01b0316816001600160a01b03166361f898256040518163ffffffff1660e01b8152600401602060405180830381865afa158015620004d7573d6000803e3d6000fd5b505050506040513d601f19601f82011682018060405250810190620004fd919062001bb4565b6001600160a01b031614155b80156200058d575060006001600160a01b0316816001600160a01b031663fedcc0526040518163ffffffff1660e01b8152600401602060405180830381865afa1580156200055b573d6000803e3d6000fd5b505050506040513d601f19601f8201168201806040525081019062000581919062001bb4565b6001600160a01b031614155b620005db5760405162461bcd60e51b815260206004820181905260248201527f696e76616c696420496d706c656d656e746174696f6e20417574686f72697479604482015260640162000275565b600180546001600160a01b0319166001600160a01b0383169081179091556040519081527f3b1074392ed8e8424715d0dda2197eede67080b377fc8370e26f3e882207f6b89060200160405180910390a150565b6000600283836040516200064592919062001bd4565b908152604051908190036020019020546001600160a01b0316905092915050565b6200067062001598565b60006001600160a01b03166002846040516200068d919062001c0a565b908152604051908190036020019020546001600160a01b031614620006ee5760405162461bcd60e51b81526020600482015260166024820152751d1bdad95b88185b1c9958591e4819195c1b1bde595960521b604482015260640162000275565b620006fd604082018262001c28565b90506200070e602083018362001c28565b9050146200075f5760405162461bcd60e51b815260206004820152601760248201527f636c61696d207061747465726e206e6f742076616c6964000000000000000000604482015260640162000275565b600562000770602083018362001c28565b90501115620007cc5760405162461bcd60e51b815260206004820152602160248201527f6d6178203520636c61696d2069737375657273206174206465706c6f796d656e6044820152601d60fa1b606482015260840162000275565b6005620007da828062001c28565b905011156200082c5760405162461bcd60e51b815260206004820181905260248201527f6d6178203520636c61696d20746f70696373206174206465706c6f796d656e74604482015260640162000275565b60056200083d60c084018462001c28565b9050111580156200085f575060056200085a60e084018462001c28565b905011155b620008ad5760405162461bcd60e51b815260206004820152601a60248201527f6d61782035206167656e7473206174206465706c6f796d656e74000000000000604482015260640162000275565b601e620008bf61010084018462001c28565b905011156200091d5760405162461bcd60e51b815260206004820152602360248201527f6d6178203330206d6f64756c6520616374696f6e73206174206465706c6f796d604482015262195b9d60ea1b606482015260840162000275565b6200092d61012083018362001c28565b90506200093f61010084018462001c28565b90501015620009915760405162461bcd60e51b815260206004820152601a60248201527f696e76616c696420636f6d706c69616e6365207061747465726e000000000000604482015260640162000275565b600154600090620009ad9085906001600160a01b031662001644565b600154909150600090620009cc9086906001600160a01b0316620016d3565b600154909150600090620009eb9087906001600160a01b0316620016e8565b905060008062000a0260a08801608089016200198a565b6001600160a01b03160362000a325760015462000a2a9088906001600160a01b0316620016fd565b905062000a47565b62000a4460a08701608088016200198a565b90505b60015460009062000a669089906001600160a01b031687878662001712565b60015490915060009062000b58908a906001600160a01b0316848762000a9060208e018e62001c7c565b8080601f016020809104026020016040519081016040528093929190818152602001838380828437600081840152601f19601f820116905080830192505050505050508d806040019062000ae5919062001c7c565b8080601f016020809104026020016040519081016040528093929190818152602001838380828437600081840152601f19601f820116905080830192505050505050508e606001602081019062000b3d919062001cc6565b8f60a001602081019062000b5291906200198a565b620017b9565b905060005b62000b69888062001c28565b905081101562000c11576001600160a01b03861663c7b2255162000b8e8a8062001c28565b8481811062000ba15762000ba162001ceb565b905060200201356040518263ffffffff1660e01b815260040162000bc791815260200190565b600060405180830381600087803b15801562000be257600080fd5b505af115801562000bf7573d6000803e3d6000fd5b50505050808062000c089062001d01565b91505062000b5d565b5060005b62000c24602089018962001c28565b905081101562000d16576001600160a01b038716639f63ea9862000c4c60208b018b62001c28565b8481811062000c5f5762000c5f62001ceb565b905060200201602081019062000c7691906200198a565b62000c8560408c018c62001c28565b8581811062000c985762000c9862001ceb565b905060200281019062000cac919062001c28565b6040518463ffffffff1660e01b815260040162000ccc9392919062001d29565b600060405180830381600087803b15801562000ce757600080fd5b505af115801562000cfc573d6000803e3d6000fd5b50505050808062000d0d9062001d01565b91505062000c15565b5060405163690a49f960e01b81526001600160a01b03838116600483015284169063690a49f990602401600060405180830381600087803b15801562000d5b57600080fd5b505af115801562000d70573d6000803e3d6000fd5b5050604051634273cc2160e11b81526001600160a01b038481166004830152851692506384e798429150602401600060405180830381600087803b15801562000db857600080fd5b505af115801562000dcd573d6000803e3d6000fd5b5050505060005b62000de360c08a018a62001c28565b905081101562000ea6576001600160a01b0383166384e7984262000e0b60c08c018c62001c28565b8481811062000e1e5762000e1e62001ceb565b905060200201602081019062000e3591906200198a565b6040516001600160e01b031960e084901b1681526001600160a01b039091166004820152602401600060405180830381600087803b15801562000e7757600080fd5b505af115801562000e8c573d6000803e3d6000fd5b50505050808062000e9d9062001d01565b91505062000dd4565b5060005b62000eb960e08a018a62001c28565b905081101562000f7c576001600160a01b0382166384e7984262000ee160e08c018c62001c28565b8481811062000ef45762000ef462001ceb565b905060200201602081019062000f0b91906200198a565b6040516001600160e01b031960e084901b1681526001600160a01b039091166004820152602401600060405180830381600087803b15801562000f4d57600080fd5b505af115801562000f62573d6000803e3d6000fd5b50505050808062000f739062001d01565b91505062000eaa565b5060005b62000f906101008a018a62001c28565b9050811015620011fc576001600160a01b03851663a446d49f62000fb96101008c018c62001c28565b8481811062000fcc5762000fcc62001ceb565b905060200201602081019062000fe391906200198a565b6040516001600160e01b031960e084901b1681526001600160a01b039091166004820152602401602060405180830381865afa15801562001028573d6000803e3d6000fd5b505050506040513d601f19601f820116820180604052508101906200104e919062001d74565b620010f8576001600160a01b038516631ed86f19620010726101008c018c62001c28565b8481811062001085576200108562001ceb565b90506020020160208101906200109c91906200198a565b6040516001600160e01b031960e084901b1681526001600160a01b039091166004820152602401600060405180830381600087803b158015620010de57600080fd5b505af1158015620010f3573d6000803e3d6000fd5b505050505b620011086101208a018a62001c28565b9050811015620011e7576001600160a01b03851663efb22d33620011316101208c018c62001c28565b8481811062001144576200114462001ceb565b905060200281019062001158919062001c7c565b620011686101008e018e62001c28565b868181106200117b576200117b62001ceb565b90506020020160208101906200119291906200198a565b6040518463ffffffff1660e01b8152600401620011b29392919062001d98565b600060405180830381600087803b158015620011cd57600080fd5b505af1158015620011e2573d6000803e3d6000fd5b505050505b80620011f38162001d01565b91505062000f80565b508060028a60405162001210919062001c0a565b9081526040516020918190038201902080546001600160a01b0319166001600160a01b039384161790559082169063f2fde38b9062001252908b018b6200198a565b6040516001600160e01b031960e084901b1681526001600160a01b039091166004820152602401600060405180830381600087803b1580156200129457600080fd5b505af1158015620012a9573d6000803e3d6000fd5b5050506001600160a01b038316905063f2fde38b620012cc60208b018b6200198a565b6040516001600160e01b031960e084901b1681526001600160a01b039091166004820152602401600060405180830381600087803b1580156200130e57600080fd5b505af115801562001323573d6000803e3d6000fd5b5050506001600160a01b038716905063f2fde38b6200134660208b018b6200198a565b6040516001600160e01b031960e084901b1681526001600160a01b039091166004820152602401600060405180830381600087803b1580156200138857600080fd5b505af11580156200139d573d6000803e3d6000fd5b5050506001600160a01b038616905063f2fde38b620013c060208b018b6200198a565b6040516001600160e01b031960e084901b1681526001600160a01b039091166004820152602401600060405180830381600087803b1580156200140257600080fd5b505af115801562001417573d6000803e3d6000fd5b5050506001600160a01b038516905063f2fde38b6200143a60208b018b6200198a565b6040516001600160e01b031960e084901b1681526001600160a01b039091166004820152602401600060405180830381600087803b1580156200147c57600080fd5b505af115801562001491573d6000803e3d6000fd5b5050505088604051620014a5919062001c0a565b604080519182900382206001600160a01b0385811684528681166020850152898116848401528881166060850152878116608085015291519092918416917f057adae5fa3e9caa8a0d584edff60f61558d33f073412ec2d66d558b739e0a41919081900360a00190a3505050505050505050565b6200152362001598565b6001600160a01b0381166200158a5760405162461bcd60e51b815260206004820152602660248201527f4f776e61626c653a206e6577206f776e657220697320746865207a65726f206160448201526564647265737360d01b606482015260840162000275565b6200159581620015f4565b50565b6000546001600160a01b03163314620002165760405162461bcd60e51b815260206004820181905260248201527f4f776e61626c653a2063616c6c6572206973206e6f7420746865206f776e6572604482015260640162000275565b600080546001600160a01b038381166001600160a01b0319831681178455604051919092169283917f8be0079c531659141344cd1fd0a4f28419497f9722a3daafe3b4186f6b6457e09190a35050565b600080604051806020016200165990620018e2565b601f1982820381018352601f9091011660408181526001600160a01b038616602083015291925060009101604051602081830303815290604052905060008282604051602001620016ac92919062001dd9565b6040516020818303038152906040529050620016c986826200185a565b9695505050505050565b600080604051806020016200165990620018f0565b600080604051806020016200165990620018fe565b6000806040518060200162001659906200190c565b6000806040518060200162001727906200191a565b601f1982820381018352601f9091011660408181526001600160a01b03898116602084015288811682840152878116606084015286166080808401919091528151808403909101815260a083019091529192506000906200178f908490849060c00162001dd9565b6040516020818303038152906040529050620017ac89826200185a565b9998505050505050505050565b60008060405180602001620017ce9062001928565b6020820181038252601f19601f82011660405250905060008989898989898960405160200162001805979695949392919062001e3a565b6040516020818303038152906040529050600082826040516020016200182d92919062001dd9565b60405160208183030381529060405290506200184a8c826200185a565b9c9b505050505050505050505050565b6000808360405160200162001870919062001c0a565b60405160208183030381529060405280519060200120905060008360200184518381836000f592505050803b620018a657600080fd5b6040516001600160a01b038216907ff40fcec21964ffb566044d083b4073f29f7f7929110ea19e1b3ebe375d89055e90600090a2949350505050565b6108fc8062001ea383390190565b6108fc806200279f83390190565b6108fc806200309b83390190565b6108fc806200399783390190565b6109bf806200429383390190565b610d058062004c5283390190565b6001600160a01b03811681146200159557600080fd5b600080604083850312156200196057600080fd5b82356200196d8162001936565b915060208301356200197f8162001936565b809150509250929050565b6000602082840312156200199d57600080fd5b8135620019aa8162001936565b9392505050565b60008060208385031215620019c557600080fd5b823567ffffffffffffffff80821115620019de57600080fd5b818501915085601f830112620019f357600080fd5b81358181111562001a0357600080fd5b86602082850101111562001a1657600080fd5b60209290920196919550909350505050565b634e487b7160e01b600052604160045260246000fd5b600082601f83011262001a5057600080fd5b813567ffffffffffffffff8082111562001a6e5762001a6e62001a28565b604051601f8301601f19908116603f0116810190828211818310171562001a995762001a9962001a28565b8160405283815286602085880101111562001ab357600080fd5b836020870160208301376000602085830101528094505050505092915050565b60008060006060848603121562001ae957600080fd5b833567ffffffffffffffff8082111562001b0257600080fd5b62001b108783880162001a3e565b9450602086013591508082111562001b2757600080fd5b90850190610140828803121562001b3d57600080fd5b9092506040850135908082111562001b5457600080fd5b5084016060818703121562001b6857600080fd5b809150509250925092565b60006020828403121562001b8657600080fd5b813567ffffffffffffffff81111562001b9e57600080fd5b62001bac8482850162001a3e565b949350505050565b60006020828403121562001bc757600080fd5b8151620019aa8162001936565b8183823760009101908152919050565b60005b8381101562001c0157818101518382015260200162001be7565b50506000910152565b6000825162001c1e81846020870162001be4565b9190910192915050565b6000808335601e1984360301811262001c4057600080fd5b83018035915067ffffffffffffffff82111562001c5c57600080fd5b6020019150600581901b360382131562001c7557600080fd5b9250929050565b6000808335601e1984360301811262001c9457600080fd5b83018035915067ffffffffffffffff82111562001cb057600080fd5b60200191503681900382131562001c7557600080fd5b60006020828403121562001cd957600080fd5b813560ff81168114620019aa57600080fd5b634e487b7160e01b600052603260045260246000fd5b60006001820162001d2257634e487b7160e01b600052601160045260246000fd5b5060010190565b6001600160a01b0384168152604060208201819052810182905260006001600160fb1b0383111562001d5a57600080fd5b8260051b8085606085013791909101606001949350505050565b60006020828403121562001d8757600080fd5b81518015158114620019aa57600080fd5b6040815282604082015282846060830137600060608483018101919091526001600160a01b03929092166020820152601f909201601f191690910101919050565b6000835162001ded81846020880162001be4565b83519083019062001e0381836020880162001be4565b01949350505050565b6000815180845262001e2681602086016020860162001be4565b601f01601f19169290920160200192915050565b600060018060a01b03808a1683528089166020840152808816604084015260e0606084015262001e6e60e084018862001e0c565b838103608085015262001e82818862001e0c565b60ff9690961660a0850152509290921660c090910152509594505050505056fe608060405234801561001057600080fd5b506040516108fc3803806108fc83398101604081905261002f9161022a565b6001600160a01b03811661008a5760405162461bcd60e51b815260206004820152601f60248201527f696e76616c696420617267756d656e74202d207a65726f20616464726573730060448201526064015b60405180910390fd5b6100a0816000805160206108dc83398151915255565b6040516001600160a01b038216907f3b1074392ed8e8424715d0dda2197eede67080b377fc8370e26f3e882207f6b890600090a260006100ec6000805160206108dc8339815191525490565b6001600160a01b031663fedcc0526040518163ffffffff1660e01b8152600401602060405180830381865afa158015610129573d6000803e3d6000fd5b505050506040513d601f19601f8201168201806040525081019061014d919061022a565b60408051600481526024810182526020810180516001600160e01b03166370e39c9560e11b17905290519192506000916001600160a01b038416916101919161025a565b600060405180830381855af49150503d80600081146101cc576040519150601f19603f3d011682016040523d82523d6000602084013e6101d1565b606091505b50509050806102225760405162461bcd60e51b815260206004820152601660248201527f496e697469616c697a6174696f6e206661696c65642e000000000000000000006044820152606401610081565b505050610289565b60006020828403121561023c57600080fd5b81516001600160a01b038116811461025357600080fd5b9392505050565b6000825160005b8181101561027b5760208186018101518583015201610261565b506000920191825250919050565b610644806102986000396000f3fe6080604052600436106100295760003560e01c80632d5f1187146100cf57806392dd9d6514610108575b60006100416000805160206105ef8339815191525490565b6001600160a01b031663fedcc0526040518163ffffffff1660e01b8152600401602060405180830381865afa15801561007e573d6000803e3d6000fd5b505050506040513d601f19601f820116820180604052508101906100a291906105ad565b90503660008037600080366000846127105a03f43d806000803e8180156100c857816000f35b816000fd5b005b3480156100db57600080fd5b506000805160206105ef833981519152546040516001600160a01b03909116815260200160405180910390f35b34801561011457600080fd5b506100cd6101233660046105d1565b6000805160206105ef833981519152546001600160a01b0316336001600160a01b0316146101ae5760405162461bcd60e51b815260206004820152602d60248201527f6f6e6c792063757272656e7420696d706c656d656e746174696f6e417574686f60448201526c1c9a5d1e4818d85b8818d85b1b609a1b60648201526084015b60405180910390fd5b6001600160a01b0381166102045760405162461bcd60e51b815260206004820152601f60248201527f696e76616c696420617267756d656e74202d207a65726f20616464726573730060448201526064016101a5565b60006001600160a01b0316816001600160a01b031663709bc7f36040518163ffffffff1660e01b8152600401602060405180830381865afa15801561024d573d6000803e3d6000fd5b505050506040513d601f19601f8201168201806040525081019061027191906105ad565b6001600160a01b0316141580156102fc575060006001600160a01b0316816001600160a01b0316636ff6e83f6040518163ffffffff1660e01b8152600401602060405180830381865afa1580156102cc573d6000803e3d6000fd5b505050506040513d601f19601f820116820180604052508101906102f091906105ad565b6001600160a01b031614155b801561037c575060006001600160a01b0316816001600160a01b0316631ee9ce8b6040518163ffffffff1660e01b8152600401602060405180830381865afa15801561034c573d6000803e3d6000fd5b505050506040513d601f19601f8201168201806040525081019061037091906105ad565b6001600160a01b031614155b80156103fc575060006001600160a01b0316816001600160a01b0316639e3e7bb96040518163ffffffff1660e01b8152600401602060405180830381865afa1580156103cc573d6000803e3d6000fd5b505050506040513d601f19601f820116820180604052508101906103f091906105ad565b6001600160a01b031614155b801561047c575060006001600160a01b0316816001600160a01b03166361f898256040518163ffffffff1660e01b8152600401602060405180830381865afa15801561044c573d6000803e3d6000fd5b505050506040513d601f19601f8201168201806040525081019061047091906105ad565b6001600160a01b031614155b80156104fc575060006001600160a01b0316816001600160a01b031663fedcc0526040518163ffffffff1660e01b8152600401602060405180830381865afa1580156104cc573d6000803e3d6000fd5b505050506040513d601f19601f820116820180604052508101906104f091906105ad565b6001600160a01b031614155b6105485760405162461bcd60e51b815260206004820181905260248201527f696e76616c696420496d706c656d656e746174696f6e20417574686f7269747960448201526064016101a5565b61055e816000805160206105ef83398151915255565b6040516001600160a01b038216907f3b1074392ed8e8424715d0dda2197eede67080b377fc8370e26f3e882207f6b890600090a250565b6001600160a01b03811681146105aa57600080fd5b50565b6000602082840312156105bf57600080fd5b81516105ca81610595565b9392505050565b6000602082840312156105e357600080fd5b81356105ca8161059556fec5f16f0fcc639fa48a6947836d9850f504798523bf8c9a3a87d5876cf622bcf7a2646970667358221220508f9bfe80f2ce021a0b326ba1288109888a975ebf2ef113fb6c37aec4f6048964736f6c63430008110033c5f16f0fcc639fa48a6947836d9850f504798523bf8c9a3a87d5876cf622bcf7608060405234801561001057600080fd5b506040516108fc3803806108fc83398101604081905261002f9161022a565b6001600160a01b03811661008a5760405162461bcd60e51b815260206004820152601f60248201527f696e76616c696420617267756d656e74202d207a65726f20616464726573730060448201526064015b60405180910390fd5b6100a0816000805160206108dc83398151915255565b6040516001600160a01b038216907f3b1074392ed8e8424715d0dda2197eede67080b377fc8370e26f3e882207f6b890600090a260006100ec6000805160206108dc8339815191525490565b6001600160a01b0316636ff6e83f6040518163ffffffff1660e01b8152600401602060405180830381865afa158015610129573d6000803e3d6000fd5b505050506040513d601f19601f8201168201806040525081019061014d919061022a565b60408051600481526024810182526020810180516001600160e01b03166370e39c9560e11b17905290519192506000916001600160a01b038416916101919161025a565b600060405180830381855af49150503d80600081146101cc576040519150601f19603f3d011682016040523d82523d6000602084013e6101d1565b606091505b50509050806102225760405162461bcd60e51b815260206004820152601660248201527f496e697469616c697a6174696f6e206661696c65642e000000000000000000006044820152606401610081565b505050610289565b60006020828403121561023c57600080fd5b81516001600160a01b038116811461025357600080fd5b9392505050565b6000825160005b8181101561027b5760208186018101518583015201610261565b506000920191825250919050565b610644806102986000396000f3fe6080604052600436106100295760003560e01c80632d5f1187146100cf57806392dd9d6514610108575b60006100416000805160206105ef8339815191525490565b6001600160a01b0316636ff6e83f6040518163ffffffff1660e01b8152600401602060405180830381865afa15801561007e573d6000803e3d6000fd5b505050506040513d601f19601f820116820180604052508101906100a291906105ad565b90503660008037600080366000846127105a03f43d806000803e8180156100c857816000f35b816000fd5b005b3480156100db57600080fd5b506000805160206105ef833981519152546040516001600160a01b03909116815260200160405180910390f35b34801561011457600080fd5b506100cd6101233660046105d1565b6000805160206105ef833981519152546001600160a01b0316336001600160a01b0316146101ae5760405162461bcd60e51b815260206004820152602d60248201527f6f6e6c792063757272656e7420696d706c656d656e746174696f6e417574686f60448201526c1c9a5d1e4818d85b8818d85b1b609a1b60648201526084015b60405180910390fd5b6001600160a01b0381166102045760405162461bcd60e51b815260206004820152601f60248201527f696e76616c696420617267756d656e74202d207a65726f20616464726573730060448201526064016101a5565b60006001600160a01b0316816001600160a01b031663709bc7f36040518163ffffffff1660e01b8152600401602060405180830381865afa15801561024d573d6000803e3d6000fd5b505050506040513d601f19601f8201168201806040525081019061027191906105ad565b6001600160a01b0316141580156102fc575060006001600160a01b0316816001600160a01b0316636ff6e83f6040518163ffffffff1660e01b8152600401602060405180830381865afa1580156102cc573d6000803e3d6000fd5b505050506040513d601f19601f820116820180604052508101906102f091906105ad565b6001600160a01b031614155b801561037c575060006001600160a01b0316816001600160a01b0316631ee9ce8b6040518163ffffffff1660e01b8152600401602060405180830381865afa15801561034c573d6000803e3d6000fd5b505050506040513d601f19601f8201168201806040525081019061037091906105ad565b6001600160a01b031614155b80156103fc575060006001600160a01b0316816001600160a01b0316639e3e7bb96040518163ffffffff1660e01b8152600401602060405180830381865afa1580156103cc573d6000803e3d6000fd5b505050506040513d601f19601f820116820180604052508101906103f091906105ad565b6001600160a01b031614155b801561047c575060006001600160a01b0316816001600160a01b03166361f898256040518163ffffffff1660e01b8152600401602060405180830381865afa15801561044c573d6000803e3d6000fd5b505050506040513d601f19601f8201168201806040525081019061047091906105ad565b6001600160a01b031614155b80156104fc575060006001600160a01b0316816001600160a01b031663fedcc0526040518163ffffffff1660e01b8152600401602060405180830381865afa1580156104cc573d6000803e3d6000fd5b505050506040513d601f19601f820116820180604052508101906104f091906105ad565b6001600160a01b031614155b6105485760405162461bcd60e51b815260206004820181905260248201527f696e76616c696420496d706c656d656e746174696f6e20417574686f7269747960448201526064016101a5565b61055e816000805160206105ef83398151915255565b6040516001600160a01b038216907f3b1074392ed8e8424715d0dda2197eede67080b377fc8370e26f3e882207f6b890600090a250565b6001600160a01b03811681146105aa57600080fd5b50565b6000602082840312156105bf57600080fd5b81516105ca81610595565b9392505050565b6000602082840312156105e357600080fd5b81356105ca8161059556fec5f16f0fcc639fa48a6947836d9850f504798523bf8c9a3a87d5876cf622bcf7a26469706673582212202c09d09209fd37dab978f4e32781df4bf77a16483f47a4f0db3f571edb2127b864736f6c63430008110033c5f16f0fcc639fa48a6947836d9850f504798523bf8c9a3a87d5876cf622bcf7608060405234801561001057600080fd5b506040516108fc3803806108fc83398101604081905261002f9161022a565b6001600160a01b03811661008a5760405162461bcd60e51b815260206004820152601f60248201527f696e76616c696420617267756d656e74202d207a65726f20616464726573730060448201526064015b60405180910390fd5b6100a0816000805160206108dc83398151915255565b6040516001600160a01b038216907f3b1074392ed8e8424715d0dda2197eede67080b377fc8370e26f3e882207f6b890600090a260006100ec6000805160206108dc8339815191525490565b6001600160a01b03166361f898256040518163ffffffff1660e01b8152600401602060405180830381865afa158015610129573d6000803e3d6000fd5b505050506040513d601f19601f8201168201806040525081019061014d919061022a565b60408051600481526024810182526020810180516001600160e01b03166370e39c9560e11b17905290519192506000916001600160a01b038416916101919161025a565b600060405180830381855af49150503d80600081146101cc576040519150601f19603f3d011682016040523d82523d6000602084013e6101d1565b606091505b50509050806102225760405162461bcd60e51b815260206004820152601660248201527f496e697469616c697a6174696f6e206661696c65642e000000000000000000006044820152606401610081565b505050610289565b60006020828403121561023c57600080fd5b81516001600160a01b038116811461025357600080fd5b9392505050565b6000825160005b8181101561027b5760208186018101518583015201610261565b506000920191825250919050565b610644806102986000396000f3fe6080604052600436106100295760003560e01c80632d5f1187146100cf57806392dd9d6514610108575b60006100416000805160206105ef8339815191525490565b6001600160a01b03166361f898256040518163ffffffff1660e01b8152600401602060405180830381865afa15801561007e573d6000803e3d6000fd5b505050506040513d601f19601f820116820180604052508101906100a291906105ad565b90503660008037600080366000846127105a03f43d806000803e8180156100c857816000f35b816000fd5b005b3480156100db57600080fd5b506000805160206105ef833981519152546040516001600160a01b03909116815260200160405180910390f35b34801561011457600080fd5b506100cd6101233660046105d1565b6000805160206105ef833981519152546001600160a01b0316336001600160a01b0316146101ae5760405162461bcd60e51b815260206004820152602d60248201527f6f6e6c792063757272656e7420696d706c656d656e746174696f6e417574686f60448201526c1c9a5d1e4818d85b8818d85b1b609a1b60648201526084015b60405180910390fd5b6001600160a01b0381166102045760405162461bcd60e51b815260206004820152601f60248201527f696e76616c696420617267756d656e74202d207a65726f20616464726573730060448201526064016101a5565b60006001600160a01b0316816001600160a01b031663709bc7f36040518163ffffffff1660e01b8152600401602060405180830381865afa15801561024d573d6000803e3d6000fd5b505050506040513d601f19601f8201168201806040525081019061027191906105ad565b6001600160a01b0316141580156102fc575060006001600160a01b0316816001600160a01b0316636ff6e83f6040518163ffffffff1660e01b8152600401602060405180830381865afa1580156102cc573d6000803e3d6000fd5b505050506040513d601f19601f820116820180604052508101906102f091906105ad565b6001600160a01b031614155b801561037c575060006001600160a01b0316816001600160a01b0316631ee9ce8b6040518163ffffffff1660e01b8152600401602060405180830381865afa15801561034c573d6000803e3d6000fd5b505050506040513d601f19601f8201168201806040525081019061037091906105ad565b6001600160a01b031614155b80156103fc575060006001600160a01b0316816001600160a01b0316639e3e7bb96040518163ffffffff1660e01b8152600401602060405180830381865afa1580156103cc573d6000803e3d6000fd5b505050506040513d601f19601f820116820180604052508101906103f091906105ad565b6001600160a01b031614155b801561047c575060006001600160a01b0316816001600160a01b03166361f898256040518163ffffffff1660e01b8152600401602060405180830381865afa15801561044c573d6000803e3d6000fd5b505050506040513d601f19601f8201168201806040525081019061047091906105ad565b6001600160a01b031614155b80156104fc575060006001600160a01b0316816001600160a01b031663fedcc0526040518163ffffffff1660e01b8152600401602060405180830381865afa1580156104cc573d6000803e3d6000fd5b505050506040513d601f19601f820116820180604052508101906104f091906105ad565b6001600160a01b031614155b6105485760405162461bcd60e51b815260206004820181905260248201527f696e76616c696420496d706c656d656e746174696f6e20417574686f7269747960448201526064016101a5565b61055e816000805160206105ef83398151915255565b6040516001600160a01b038216907f3b1074392ed8e8424715d0dda2197eede67080b377fc8370e26f3e882207f6b890600090a250565b6001600160a01b03811681146105aa57600080fd5b50565b6000602082840312156105bf57600080fd5b81516105ca81610595565b9392505050565b6000602082840312156105e357600080fd5b81356105ca8161059556fec5f16f0fcc639fa48a6947836d9850f504798523bf8c9a3a87d5876cf622bcf7a264697066735822122021643f5b40ff26d11470b3563da93c2c8823fda7cc18cd4640d3b54eb12e200164736f6c63430008110033c5f16f0fcc639fa48a6947836d9850f504798523bf8c9a3a87d5876cf622bcf7608060405234801561001057600080fd5b506040516108fc3803806108fc83398101604081905261002f9161022a565b6001600160a01b03811661008a5760405162461bcd60e51b815260206004820152601f60248201527f696e76616c696420617267756d656e74202d207a65726f20616464726573730060448201526064015b60405180910390fd5b6100a0816000805160206108dc83398151915255565b6040516001600160a01b038216907f3b1074392ed8e8424715d0dda2197eede67080b377fc8370e26f3e882207f6b890600090a260006100ec6000805160206108dc8339815191525490565b6001600160a01b0316639e3e7bb96040518163ffffffff1660e01b8152600401602060405180830381865afa158015610129573d6000803e3d6000fd5b505050506040513d601f19601f8201168201806040525081019061014d919061022a565b60408051600481526024810182526020810180516001600160e01b03166370e39c9560e11b17905290519192506000916001600160a01b038416916101919161025a565b600060405180830381855af49150503d80600081146101cc576040519150601f19603f3d011682016040523d82523d6000602084013e6101d1565b606091505b50509050806102225760405162461bcd60e51b815260206004820152601660248201527f496e697469616c697a6174696f6e206661696c65642e000000000000000000006044820152606401610081565b505050610289565b60006020828403121561023c57600080fd5b81516001600160a01b038116811461025357600080fd5b9392505050565b6000825160005b8181101561027b5760208186018101518583015201610261565b506000920191825250919050565b610644806102986000396000f3fe6080604052600436106100295760003560e01c80632d5f1187146100cf57806392dd9d6514610108575b60006100416000805160206105ef8339815191525490565b6001600160a01b0316639e3e7bb96040518163ffffffff1660e01b8152600401602060405180830381865afa15801561007e573d6000803e3d6000fd5b505050506040513d601f19601f820116820180604052508101906100a291906105ad565b90503660008037600080366000846127105a03f43d806000803e8180156100c857816000f35b816000fd5b005b3480156100db57600080fd5b506000805160206105ef833981519152546040516001600160a01b03909116815260200160405180910390f35b34801561011457600080fd5b506100cd6101233660046105d1565b6000805160206105ef833981519152546001600160a01b0316336001600160a01b0316146101ae5760405162461bcd60e51b815260206004820152602d60248201527f6f6e6c792063757272656e7420696d706c656d656e746174696f6e417574686f60448201526c1c9a5d1e4818d85b8818d85b1b609a1b60648201526084015b60405180910390fd5b6001600160a01b0381166102045760405162461bcd60e51b815260206004820152601f60248201527f696e76616c696420617267756d656e74202d207a65726f20616464726573730060448201526064016101a5565b60006001600160a01b0316816001600160a01b031663709bc7f36040518163ffffffff1660e01b8152600401602060405180830381865afa15801561024d573d6000803e3d6000fd5b505050506040513d601f19601f8201168201806040525081019061027191906105ad565b6001600160a01b0316141580156102fc575060006001600160a01b0316816001600160a01b0316636ff6e83f6040518163ffffffff1660e01b8152600401602060405180830381865afa1580156102cc573d6000803e3d6000fd5b505050506040513d601f19601f820116820180604052508101906102f091906105ad565b6001600160a01b031614155b801561037c575060006001600160a01b0316816001600160a01b0316631ee9ce8b6040518163ffffffff1660e01b8152600401602060405180830381865afa15801561034c573d6000803e3d6000fd5b505050506040513d601f19601f8201168201806040525081019061037091906105ad565b6001600160a01b031614155b80156103fc575060006001600160a01b0316816001600160a01b0316639e3e7bb96040518163ffffffff1660e01b8152600401602060405180830381865afa1580156103cc573d6000803e3d6000fd5b505050506040513d601f19601f820116820180604052508101906103f091906105ad565b6001600160a01b031614155b801561047c575060006001600160a01b0316816001600160a01b03166361f898256040518163ffffffff1660e01b8152600401602060405180830381865afa15801561044c573d6000803e3d6000fd5b505050506040513d601f19601f8201168201806040525081019061047091906105ad565b6001600160a01b031614155b80156104fc575060006001600160a01b0316816001600160a01b031663fedcc0526040518163ffffffff1660e01b8152600401602060405180830381865afa1580156104cc573d6000803e3d6000fd5b505050506040513d601f19601f820116820180604052508101906104f091906105ad565b6001600160a01b031614155b6105485760405162461bcd60e51b815260206004820181905260248201527f696e76616c696420496d706c656d656e746174696f6e20417574686f7269747960448201526064016101a5565b61055e816000805160206105ef83398151915255565b6040516001600160a01b038216907f3b1074392ed8e8424715d0dda2197eede67080b377fc8370e26f3e882207f6b890600090a250565b6001600160a01b03811681146105aa57600080fd5b50565b6000602082840312156105bf57600080fd5b81516105ca81610595565b9392505050565b6000602082840312156105e357600080fd5b81356105ca8161059556fec5f16f0fcc639fa48a6947836d9850f504798523bf8c9a3a87d5876cf622bcf7a264697066735822122035f836b2cb3f636b262d3d313a9a235340dec9348a2114021e08c1383b159af164736f6c63430008110033c5f16f0fcc639fa48a6947836d9850f504798523bf8c9a3a87d5876cf622bcf7608060405234801561001057600080fd5b506040516109bf3803806109bf83398101604081905261002f916102a7565b6001600160a01b0384161580159061004f57506001600160a01b03831615155b801561006357506001600160a01b03821615155b801561007757506001600160a01b03811615155b6100c85760405162461bcd60e51b815260206004820152601f60248201527f696e76616c696420617267756d656e74202d207a65726f20616464726573730060448201526064015b60405180910390fd5b6100de8460008051602061099f83398151915255565b6040516001600160a01b038516907f3b1074392ed8e8424715d0dda2197eede67080b377fc8370e26f3e882207f6b890600090a2600061012a60008051602061099f8339815191525490565b6001600160a01b0316631ee9ce8b6040518163ffffffff1660e01b8152600401602060405180830381865afa158015610167573d6000803e3d6000fd5b505050506040513d601f19601f8201168201806040525081019061018b91906102fb565b6040516001600160a01b0386811660248301528581166044830152848116606483015291925060009183169060840160408051601f198184030181529181526020820180516001600160e01b031663184b955960e01b179052516101ef919061031d565b600060405180830381855af49150503d806000811461022a576040519150601f19603f3d011682016040523d82523d6000602084013e61022f565b606091505b50509050806102805760405162461bcd60e51b815260206004820152601660248201527f496e697469616c697a6174696f6e206661696c65642e0000000000000000000060448201526064016100bf565b50505050505061034c565b80516001600160a01b03811681146102a257600080fd5b919050565b600080600080608085870312156102bd57600080fd5b6102c68561028b565b93506102d46020860161028b565b92506102e26040860161028b565b91506102f06060860161028b565b905092959194509250565b60006020828403121561030d57600080fd5b6103168261028b565b9392505050565b6000825160005b8181101561033e5760208186018101518583015201610324565b506000920191825250919050565b6106448061035b6000396000f3fe6080604052600436106100295760003560e01c80632d5f1187146100cf57806392dd9d6514610108575b60006100416000805160206105ef8339815191525490565b6001600160a01b0316631ee9ce8b6040518163ffffffff1660e01b8152600401602060405180830381865afa15801561007e573d6000803e3d6000fd5b505050506040513d601f19601f820116820180604052508101906100a291906105ad565b90503660008037600080366000846127105a03f43d806000803e8180156100c857816000f35b816000fd5b005b3480156100db57600080fd5b506000805160206105ef833981519152546040516001600160a01b03909116815260200160405180910390f35b34801561011457600080fd5b506100cd6101233660046105d1565b6000805160206105ef833981519152546001600160a01b0316336001600160a01b0316146101ae5760405162461bcd60e51b815260206004820152602d60248201527f6f6e6c792063757272656e7420696d706c656d656e746174696f6e417574686f60448201526c1c9a5d1e4818d85b8818d85b1b609a1b60648201526084015b60405180910390fd5b6001600160a01b0381166102045760405162461bcd60e51b815260206004820152601f60248201527f696e76616c696420617267756d656e74202d207a65726f20616464726573730060448201526064016101a5565b60006001600160a01b0316816001600160a01b031663709bc7f36040518163ffffffff1660e01b8152600401602060405180830381865afa15801561024d573d6000803e3d6000fd5b505050506040513d601f19601f8201168201806040525081019061027191906105ad565b6001600160a01b0316141580156102fc575060006001600160a01b0316816001600160a01b0316636ff6e83f6040518163ffffffff1660e01b8152600401602060405180830381865afa1580156102cc573d6000803e3d6000fd5b505050506040513d601f19601f820116820180604052508101906102f091906105ad565b6001600160a01b031614155b801561037c575060006001600160a01b0316816001600160a01b0316631ee9ce8b6040518163ffffffff1660e01b8152600401602060405180830381865afa15801561034c573d6000803e3d6000fd5b505050506040513d601f19601f8201168201806040525081019061037091906105ad565b6001600160a01b031614155b80156103fc575060006001600160a01b0316816001600160a01b0316639e3e7bb96040518163ffffffff1660e01b8152600401602060405180830381865afa1580156103cc573d6000803e3d6000fd5b505050506040513d601f19601f820116820180604052508101906103f091906105ad565b6001600160a01b031614155b801561047c575060006001600160a01b0316816001600160a01b03166361f898256040518163ffffffff1660e01b8152600401602060405180830381865afa15801561044c573d6000803e3d6000fd5b505050506040513d601f19601f8201168201806040525081019061047091906105ad565b6001600160a01b031614155b80156104fc575060006001600160a01b0316816001600160a01b031663fedcc0526040518163ffffffff1660e01b8152600401602060405180830381865afa1580156104cc573d6000803e3d6000fd5b505050506040513d601f19601f820116820180604052508101906104f091906105ad565b6001600160a01b031614155b6105485760405162461bcd60e51b815260206004820181905260248201527f696e76616c696420496d706c656d656e746174696f6e20417574686f7269747960448201526064016101a5565b61055e816000805160206105ef83398151915255565b6040516001600160a01b038216907f3b1074392ed8e8424715d0dda2197eede67080b377fc8370e26f3e882207f6b890600090a250565b6001600160a01b03811681146105aa57600080fd5b50565b6000602082840312156105bf57600080fd5b81516105ca81610595565b9392505050565b6000602082840312156105e357600080fd5b81356105ca8161059556fec5f16f0fcc639fa48a6947836d9850f504798523bf8c9a3a87d5876cf622bcf7a264697066735822122032aff4772a571e092aa4a2d080f67b89ffee354fffdfbe9353420a648728dcbc64736f6c63430008110033c5f16f0fcc639fa48a6947836d9850f504798523bf8c9a3a87d5876cf622bcf760806040523480156200001157600080fd5b5060405162000d0538038062000d058339810160408190526200003491620004dd565b6001600160a01b038716158015906200005557506001600160a01b03861615155b80156200006a57506001600160a01b03851615155b620000bc5760405162461bcd60e51b815260206004820152601f60248201527f696e76616c696420617267756d656e74202d207a65726f20616464726573730060448201526064015b60405180910390fd5b604051602001620000d890602080825260009082015260400190565b6040516020818303038152906040528051906020012084604051602001620001019190620005da565b60405160208183030381529060405280519060200120141580156200017f57506040516020016200013d90602080825260009082015260400190565b6040516020818303038152906040528051906020012083604051602001620001669190620005da565b6040516020818303038152906040528051906020012014155b620001cd5760405162461bcd60e51b815260206004820152601f60248201527f696e76616c696420617267756d656e74202d20656d70747920737472696e67006044820152606401620000b3565b60128260ff161115620002235760405162461bcd60e51b815260206004820152601960248201527f646563696d616c73206265747765656e203020616e64203138000000000000006044820152606401620000b3565b6200023b8760008051602062000ce583398151915255565b6040516001600160a01b038816907f3b1074392ed8e8424715d0dda2197eede67080b377fc8370e26f3e882207f6b890600090a260006200028960008051602062000ce58339815191525490565b6001600160a01b031663709bc7f36040518163ffffffff1660e01b8152600401602060405180830381865afa158015620002c7573d6000803e3d6000fd5b505050506040513d601f19601f82011682018060405250810190620002ed9190620005f6565b90506000816001600160a01b0316888888888888604051602401620003189695949392919062000614565b60408051601f198184030181529181526020820180516001600160e01b0316633e46d86760e21b179052516200034f919062000673565b600060405180830381855af49150503d80600081146200038c576040519150601f19603f3d011682016040523d82523d6000602084013e62000391565b606091505b5050905080620003e45760405162461bcd60e51b815260206004820152601660248201527f496e697469616c697a6174696f6e206661696c65642e000000000000000000006044820152606401620000b3565b50505050505050505062000691565b80516001600160a01b03811681146200040b57600080fd5b919050565b634e487b7160e01b600052604160045260246000fd5b60005b838110156200044357818101518382015260200162000429565b50506000910152565b600082601f8301126200045e57600080fd5b81516001600160401b03808211156200047b576200047b62000410565b604051601f8301601f19908116603f01168101908282118183101715620004a657620004a662000410565b81604052838152866020858801011115620004c057600080fd5b620004d384602083016020890162000426565b9695505050505050565b600080600080600080600060e0888a031215620004f957600080fd5b6200050488620003f3565b96506200051460208901620003f3565b95506200052460408901620003f3565b60608901519095506001600160401b03808211156200054257600080fd5b620005508b838c016200044c565b955060808a01519150808211156200056757600080fd5b50620005768a828b016200044c565b93505060a088015160ff811681146200058e57600080fd5b91506200059e60c08901620003f3565b905092959891949750929550565b60008151808452620005c681602086016020860162000426565b601f01601f19169290920160200192915050565b602081526000620005ef6020830184620005ac565b9392505050565b6000602082840312156200060957600080fd5b620005ef82620003f3565b600060018060a01b038089168352808816602084015260c060408401526200064060c0840188620005ac565b8381036060850152620006548188620005ac565b60ff969096166080850152509290921660a09091015250949350505050565b600082516200068781846020870162000426565b9190910192915050565b61064480620006a16000396000f3fe6080604052600436106100295760003560e01c80632d5f1187146100cf57806392dd9d6514610108575b60006100416000805160206105ef8339815191525490565b6001600160a01b031663709bc7f36040518163ffffffff1660e01b8152600401602060405180830381865afa15801561007e573d6000803e3d6000fd5b505050506040513d601f19601f820116820180604052508101906100a291906105ad565b90503660008037600080366000846127105a03f43d806000803e8180156100c857816000f35b816000fd5b005b3480156100db57600080fd5b506000805160206105ef833981519152546040516001600160a01b03909116815260200160405180910390f35b34801561011457600080fd5b506100cd6101233660046105d1565b6000805160206105ef833981519152546001600160a01b0316336001600160a01b0316146101ae5760405162461bcd60e51b815260206004820152602d60248201527f6f6e6c792063757272656e7420696d706c656d656e746174696f6e417574686f60448201526c1c9a5d1e4818d85b8818d85b1b609a1b60648201526084015b60405180910390fd5b6001600160a01b0381166102045760405162461bcd60e51b815260206004820152601f60248201527f696e76616c696420617267756d656e74202d207a65726f20616464726573730060448201526064016101a5565b60006001600160a01b0316816001600160a01b031663709bc7f36040518163ffffffff1660e01b8152600401602060405180830381865afa15801561024d573d6000803e3d6000fd5b505050506040513d601f19601f8201168201806040525081019061027191906105ad565b6001600160a01b0316141580156102fc575060006001600160a01b0316816001600160a01b0316636ff6e83f6040518163ffffffff1660e01b8152600401602060405180830381865afa1580156102cc573d6000803e3d6000fd5b505050506040513d601f19601f820116820180604052508101906102f091906105ad565b6001600160a01b031614155b801561037c575060006001600160a01b0316816001600160a01b0316631ee9ce8b6040518163ffffffff1660e01b8152600401602060405180830381865afa15801561034c573d6000803e3d6000fd5b505050506040513d601f19601f8201168201806040525081019061037091906105ad565b6001600160a01b031614155b80156103fc575060006001600160a01b0316816001600160a01b0316639e3e7bb96040518163ffffffff1660e01b8152600401602060405180830381865afa1580156103cc573d6000803e3d6000fd5b505050506040513d601f19601f820116820180604052508101906103f091906105ad565b6001600160a01b031614155b801561047c575060006001600160a01b0316816001600160a01b03166361f898256040518163ffffffff1660e01b8152600401602060405180830381865afa15801561044c573d6000803e3d6000fd5b505050506040513d601f19601f8201168201806040525081019061047091906105ad565b6001600160a01b031614155b80156104fc575060006001600160a01b0316816001600160a01b031663fedcc0526040518163ffffffff1660e01b8152600401602060405180830381865afa1580156104cc573d6000803e3d6000fd5b505050506040513d601f19601f820116820180604052508101906104f091906105ad565b6001600160a01b031614155b6105485760405162461bcd60e51b815260206004820181905260248201527f696e76616c696420496d706c656d656e746174696f6e20417574686f7269747960448201526064016101a5565b61055e816000805160206105ef83398151915255565b6040516001600160a01b038216907f3b1074392ed8e8424715d0dda2197eede67080b377fc8370e26f3e882207f6b890600090a250565b6001600160a01b03811681146105aa57600080fd5b50565b6000602082840312156105bf57600080fd5b81516105ca81610595565b9392505050565b6000602082840312156105e357600080fd5b81356105ca8161059556fec5f16f0fcc639fa48a6947836d9850f504798523bf8c9a3a87d5876cf622bcf7a2646970667358221220bbc74487d6bbc9c4b756eca7cc29d6c3f322f7580c306146d82ed6a3833eb34064736f6c63430008110033c5f16f0fcc639fa48a6947836d9850f504798523bf8c9a3a87d5876cf622bcf7a26469706673582212208ed2bf1b1588f173ab06706c67c69f1dfb13e6aa24aaafad203f06d93d6ffb2864736f6c63430008110033",
  "devdoc": {
    "kind": "dev",
    "methods": {
      "deployTREXSuite(string,(address,string,string,uint8,address,address,address[],address[],address[],bytes[]),(uint256[],address[],uint256[][]))": {
        "details": "See {ITREXFactory-deployTREXSuite}."
      },
      "getImplementationAuthority()": {
        "details": "See {ITREXFactory-getImplementationAuthority}."
      },
      "getToken(string)": {
        "details": "See {ITREXFactory-getToken}."
      },
      "owner()": {
        "details": "Returns the address of the current owner."
      },
      "recoverContractOwnership(address,address)": {
        "details": "See {ITREXFactory-recoverContractOwnership}."
      },
      "renounceOwnership()": {
        "details": "Leaves the contract without owner. It will not be possible to call `onlyOwner` functions anymore. Can only be called by the current owner. NOTE: Renouncing ownership will leave the contract without an owner, thereby removing any functionality that is only available to the owner."
      },
      "setImplementationAuthority(address)": {
        "details": "See {ITREXFactory-setImplementationAuthority}."
      },
      "transferOwnership(address)": {
        "details": "Transfers ownership of the contract to a new account (`newOwner`). Can only be called by the current owner."
      }
    },
    "version": 1
  },
  "userdoc": {
    "events": {
      "Deployed(address)": {
        "notice": "event emitted whenever a single contract is deployed by the factory"
      },
      "ImplementationAuthoritySet(address)": {
        "notice": "event emitted when the implementation authority of the factory contract is set"
      },
      "TREXSuiteDeployed(address,address,address,address,address,address,string)": {
        "notice": "event emitted by the factory when a full suite of T-REX contracts is deployed"
      }
    },
    "kind": "user",
    "methods": {
      "tokenDeployed(string)": {
        "notice": "mapping containing info about the token contracts corresponding to salt already used for CREATE2 deployments"
      }
    },
    "notice": "NOTICE     The T-REX software is licensed under a proprietary license or the GPL v.3.     If you choose to receive it under the GPL v.3 license, the following applies:     T-REX is a suite of smart contracts developed by Tokeny to manage and transfer financial assets on the ethereum blockchain     Copyright (C) 2022, Tokeny srl.     This program is free software: you can redistribute it and/or modify     it under the terms of the GNU General Public License as published by     the Free Software Foundation, either version 3 of the License, or     (at your option) any later version.     This program is distributed in the hope that it will be useful,     but WITHOUT ANY WARRANTY; without even the implied warranty of     MERCHANTABILITY or FITNESS FOR A PARTICULAR PURPOSE.  See the     GNU General Public License for more details.     You should have received a copy of the GNU General Public License     along with this program.  If not, see <https://www.gnu.org/licenses/>.",
    "version": 1
  },
  "storageLayout": {
    "storage": [
      {
        "astId": 8195,
        "contract": "contracts/TREXFactory.sol:TREXFactory",
        "label": "_owner",
        "offset": 0,
        "slot": "0",
        "type": "t_address"
      },
      {
        "astId": 11143,
        "contract": "contracts/TREXFactory.sol:TREXFactory",
        "label": "_implementationAuthority",
        "offset": 0,
        "slot": "1",
        "type": "t_address"
      },
      {
        "astId": 11148,
        "contract": "contracts/TREXFactory.sol:TREXFactory",
        "label": "tokenDeployed",
        "offset": 0,
        "slot": "2",
        "type": "t_mapping(t_string_memory_ptr,t_address)"
      }
    ],
    "types": {
      "t_address": {
        "encoding": "inplace",
        "label": "address",
        "numberOfBytes": "20"
      },
      "t_mapping(t_string_memory_ptr,t_address)": {
        "encoding": "mapping",
        "key": "t_string_memory_ptr",
        "label": "mapping(string => address)",
        "numberOfBytes": "32",
        "value": "t_address"
      },
      "t_string_memory_ptr": {
        "encoding": "bytes",
        "label": "string",
        "numberOfBytes": "32"
      }
    }
  }
}