{
  "address": "0x5cBb275b6c101C274f058Fb20d0B2bC3645B13CF",
  "abi": [
    {
      "anonymous": false,
      "inputs": [
        {
          "indexed": true,
          "internalType": "contract IClaimIssuer",
          "name": "trustedIssuer",
          "type": "address"
        },
        {
          "indexed": false,
          "internalType": "uint256[]",
          "name": "claimTopics",
          "type": "uint256[]"
        }
      ],
      "name": "ClaimTopicsUpdated",
      "type": "event"
    },
    {
      "anonymous": false,
      "inputs": [
        {
          "indexed": false,
          "internalType": "uint8",
          "name": "version",
          "type": "uint8"
        }
      ],
      "name": "Initialized",
      "type": "event"
    },
    {
      "anonymous": false,
      "inputs": [
        {
          "indexed": true,
          "internalType": "address",
          "name": "previousOwner",
          "type": "address"
        },
        {
          "indexed": true,
          "internalType": "address",
          "name": "newOwner",
          "type": "address"
        }
      ],
      "name": "OwnershipTransferred",
      "type": "event"
    },
    {
      "anonymous": false,
      "inputs": [
        {
          "indexed": true,
          "internalType": "contract IClaimIssuer",
          "name": "trustedIssuer",
          "type": "address"
        },
        {
          "indexed": false,
          "internalType": "uint256[]",
          "name": "claimTopics",
          "type": "uint256[]"
        }
      ],
      "name": "TrustedIssuerAdded",
      "type": "event"
    },
    {
      "anonymous": false,
      "inputs": [
        {
          "indexed": true,
          "internalType": "contract IClaimIssuer",
          "name": "trustedIssuer",
          "type": "address"
        }
      ],
      "name": "TrustedIssuerRemoved",
      "type": "event"
    },
    {
      "inputs": [
        {
          "internalType": "contract IClaimIssuer",
          "name": "_trustedIssuer",
          "type": "address"
        },
        {
          "internalType": "uint256[]",
          "name": "_claimTopics",
          "type": "uint256[]"
        }
      ],
      "name": "addTrustedIssuer",
      "outputs": [],
      "stateMutability": "nonpayable",
      "type": "function"
    },
    {
      "inputs": [
        {
          "internalType": "contract IClaimIssuer",
          "name": "_trustedIssuer",
          "type": "address"
        }
      ],
      "name": "getTrustedIssuerClaimTopics",
      "outputs": [
        {
          "internalType": "uint256[]",
          "name": "",
          "type": "uint256[]"
        }
      ],
      "stateMutability": "view",
      "type": "function"
    },
    {
      "inputs": [],
      "name": "getTrustedIssuers",
      "outputs": [
        {
          "internalType": "contract IClaimIssuer[]",
          "name": "",
          "type": "address[]"
        }
      ],
      "stateMutability": "view",
      "type": "function"
    },
    {
      "inputs": [
        {
          "internalType": "uint256",
          "name": "claimTopic",
          "type": "uint256"
        }
      ],
      "name": "getTrustedIssuersForClaimTopic",
      "outputs": [
        {
          "internalType": "contract IClaimIssuer[]",
          "name": "",
          "type": "address[]"
        }
      ],
      "stateMutability": "view",
      "type": "function"
    },
    {
      "inputs": [
        {
          "internalType": "address",
          "name": "_issuer",
          "type": "address"
        },
        {
          "internalType": "uint256",
          "name": "_claimTopic",
          "type": "uint256"
        }
      ],
      "name": "hasClaimTopic",
      "outputs": [
        {
          "internalType": "bool",
          "name": "",
          "type": "bool"
        }
      ],
      "stateMutability": "view",
      "type": "function"
    },
    {
      "inputs": [],
      "name": "init",
      "outputs": [],
      "stateMutability": "nonpayable",
      "type": "function"
    },
    {
      "inputs": [
        {
          "internalType": "address",
          "name": "_issuer",
          "type": "address"
        }
      ],
      "name": "isTrustedIssuer",
      "outputs": [
        {
          "internalType": "bool",
          "name": "",
          "type": "bool"
        }
      ],
      "stateMutability": "view",
      "type": "function"
    },
    {
      "inputs": [],
      "name": "owner",
      "outputs": [
        {
          "internalType": "address",
          "name": "",
          "type": "address"
        }
      ],
      "stateMutability": "view",
      "type": "function"
    },
    {
      "inputs": [
        {
          "internalType": "contract IClaimIssuer",
          "name": "_trustedIssuer",
          "type": "address"
        }
      ],
      "name": "removeTrustedIssuer",
      "outputs": [],
      "stateMutability": "nonpayable",
      "type": "function"
    },
    {
      "inputs": [],
      "name": "renounceOwnership",
      "outputs": [],
      "stateMutability": "nonpayable",
      "type": "function"
    },
    {
      "inputs": [
        {
          "internalType": "address",
          "name": "newOwner",
          "type": "address"
        }
      ],
      "name": "transferOwnership",
      "outputs": [],
      "stateMutability": "nonpayable",
      "type": "function"
    },
    {
      "inputs": [
        {
          "internalType": "contract IClaimIssuer",
          "name": "_trustedIssuer",
          "type": "address"
        },
        {
          "internalType": "uint256[]",
          "name": "_claimTopics",
          "type": "uint256[]"
        }
      ],
      "name": "updateIssuerClaimTopics",
      "outputs": [],
      "stateMutability": "nonpayable",
      "type": "function"
    }
  ],
  "transactionHash": "0x1bb6c7ea17f8eaa16f698fca5e397433db892be1fbe0e7085454f6ae0e2b0657",
  "args": [],
  "numDeployments": 1,
  "solcInputHash": "f69367090d7184c7f33f2a160d9a791d",
  "bytecode": "0x608060405234801561001057600080fd5b50611451806100206000396000f3fe608060405234801561001057600080fd5b50600436106100b45760003560e01c8063b93d28eb11610071578063b93d28eb1461014c578063c28fb2781461015f578063d9dd24c51461017f578063e1c7392a14610187578063ef2ed1a41461018f578063f2fde38b146101a257600080fd5b806304bc7e84146100b957806334a89987146100ce57806352c111d1146100f6578063715018a6146101165780638da5cb5b1461011e5780639f63ea9814610139575b600080fd5b6100cc6100c7366004611137565b6101b5565b005b6100e16100dc3660046111bf565b610551565b60405190151581526020015b60405180910390f35b6101096101043660046111eb565b610611565b6040516100ed9190611204565b6100cc61067d565b6033546040516001600160a01b0390911681526020016100ed565b6100cc610147366004611137565b610691565b6100cc61015a366004611251565b610918565b61017261016d366004611251565b610cb9565b6040516100ed9190611275565b610109610d8b565b6100cc610ded565b6100e161019d366004611251565b610efe565b6100cc6101b0366004611251565b610f2c565b6101bd610fa2565b6001600160a01b0383166101ec5760405162461bcd60e51b81526004016101e3906112ad565b60405180910390fd5b6001600160a01b038316600090815260666020526040812054900361024a5760405162461bcd60e51b81526020600482015260146024820152732727aa1030903a393ab9ba32b21034b9b9bab2b960611b60448201526064016101e3565b600f81111561026b5760405162461bcd60e51b81526004016101e3906112e4565b806102b85760405162461bcd60e51b815260206004820152601c60248201527f636c61696d20746f706963732063616e6e6f7420626520656d7074790000000060448201526064016101e3565b60005b6001600160a01b03841660009081526066602052604090205481101561046c576001600160a01b038416600090815260666020526040812080548390811061030557610305611329565b600091825260208083209091015480835260679091526040822054909250905b8181101561045657600083815260676020526040902080546001600160a01b03891691908390811061035957610359611329565b6000918252602090912001546001600160a01b03160361044457600083815260676020526040902061038c600184611355565b8154811061039c5761039c611329565b60009182526020808320909101548583526067909152604090912080546001600160a01b0390921691839081106103d5576103d5611329565b600091825260208083209190910180546001600160a01b0319166001600160a01b03949094169390931790925584815260679091526040902080548061041d5761041d611368565b600082815260209020810160001990810180546001600160a01b0319169055019055610456565b8061044e8161137e565b915050610325565b50505080806104649061137e565b9150506102bb565b506001600160a01b03831660009081526066602052604090206104909083836110a8565b5060005b8181101561050857606760008484848181106104b2576104b2611329565b6020908102929092013583525081810192909252604001600090812080546001810182559082529190200180546001600160a01b0319166001600160a01b038616179055806105008161137e565b915050610494565b50826001600160a01b03167fec753cfc52044f61676f18a11e500093a9f2b1cd5e4942bc476f2b0438159bcf8383604051610544929190611397565b60405180910390a2505050565b6001600160a01b03821660009081526066602090815260408083208054825181850281018501909352808352928492919084908301828280156105b357602002820191906000526020600020905b81548152602001906001019080831161059f575b5050505050905060005b8281101561060357848282815181106105d8576105d8611329565b6020026020010151036105f1576001935050505061060b565b806105fb8161137e565b9150506105bd565b506000925050505b92915050565b60008181526067602090815260409182902080548351818402810184019094528084526060939283018282801561067157602002820191906000526020600020905b81546001600160a01b03168152600190910190602001808311610653575b50505050509050919050565b610685610fa2565b61068f6000610ffc565b565b610699610fa2565b6001600160a01b0383166106bf5760405162461bcd60e51b81526004016101e3906112ad565b6001600160a01b038316600090815260666020526040902054156107255760405162461bcd60e51b815260206004820152601d60248201527f747275737465642049737375657220616c72656164792065786973747300000060448201526064016101e3565b8061077e5760405162461bcd60e51b8152602060048201526024808201527f7472757374656420636c61696d20746f706963732063616e6e6f7420626520656044820152636d70747960e01b60648201526084016101e3565b600f81111561079f5760405162461bcd60e51b81526004016101e3906112e4565b6065546032116108025760405162461bcd60e51b815260206004820152602860248201527f63616e6e6f742068617665206d6f7265207468616e2035302074727573746564604482015267206973737565727360c01b60648201526084016101e3565b60658054600181019091557f8ff97419363ffd7000167f130ef7168fbea05faf9251824ca5043f113cc6a7c70180546001600160a01b0319166001600160a01b03851690811790915560009081526066602052604090206108649083836110a8565b5060005b818110156108dc576067600084848481811061088657610886611329565b6020908102929092013583525081810192909252604001600090812080546001810182559082529190200180546001600160a01b0319166001600160a01b038616179055806108d48161137e565b915050610868565b50826001600160a01b03167ffedc33fd34859594822c0ff6f3f4f9fc279cc6d5cae53068f706a088e45008728383604051610544929190611397565b610920610fa2565b6001600160a01b0381166109465760405162461bcd60e51b81526004016101e3906112ad565b6001600160a01b03811660009081526066602052604081205490036109a45760405162461bcd60e51b81526020600482015260146024820152732727aa1030903a393ab9ba32b21034b9b9bab2b960611b60448201526064016101e3565b60655460005b81811015610aaa57826001600160a01b0316606582815481106109cf576109cf611329565b6000918252602090912001546001600160a01b031603610a985760656109f6600184611355565b81548110610a0657610a06611329565b600091825260209091200154606580546001600160a01b039092169183908110610a3257610a32611329565b9060005260206000200160006101000a8154816001600160a01b0302191690836001600160a01b031602179055506065805480610a7157610a71611368565b600082815260209020810160001990810180546001600160a01b0319169055019055610aaa565b80610aa28161137e565b9150506109aa565b5060005b6001600160a01b038316600090815260666020526040902054811015610c5f576001600160a01b0383166000908152606660205260408120805483908110610af857610af8611329565b600091825260208083209091015480835260679091526040822054909250905b81811015610c4957600083815260676020526040902080546001600160a01b038816919083908110610b4c57610b4c611329565b6000918252602090912001546001600160a01b031603610c37576000838152606760205260409020610b7f600184611355565b81548110610b8f57610b8f611329565b60009182526020808320909101548583526067909152604090912080546001600160a01b039092169183908110610bc857610bc8611329565b600091825260208083209190910180546001600160a01b0319166001600160a01b039490941693909317909255848152606790915260409020805480610c1057610c10611368565b600082815260209020810160001990810180546001600160a01b0319169055019055610c49565b80610c418161137e565b915050610b18565b5050508080610c579061137e565b915050610aae565b506001600160a01b0382166000908152606660205260408120610c81916110f3565b6040516001600160a01b038316907f2214ded40113cc3fb63fc206cafee88270b0a903dac7245d54efdde30ebb032190600090a25050565b6001600160a01b03811660009081526066602052604081205460609103610d225760405162461bcd60e51b815260206004820152601c60248201527f747275737465642049737375657220646f65736e27742065786973740000000060448201526064016101e3565b6001600160a01b0382166000908152606660209081526040918290208054835181840281018401909452808452909183018282801561067157602002820191906000526020600020905b815481526020019060010190808311610d6c5750505050509050919050565b60606065805480602002602001604051908101604052809291908181526020018280548015610de357602002820191906000526020600020905b81546001600160a01b03168152600190910190602001808311610dc5575b5050505050905090565b600054610100900460ff1615808015610e0d5750600054600160ff909116105b80610e275750303b158015610e27575060005460ff166001145b610e8a5760405162461bcd60e51b815260206004820152602e60248201527f496e697469616c697a61626c653a20636f6e747261637420697320616c72656160448201526d191e481a5b9a5d1a585b1a5e995960921b60648201526084016101e3565b6000805460ff191660011790558015610ead576000805461ff0019166101001790555b610eb561104e565b8015610efb576000805461ff0019169055604051600181527f7f26b83ff96e1f2b6a682f133852f6798a09c465da95921460cefb38474024989060200160405180910390a15b50565b6001600160a01b03811660009081526066602052604081205415610f2457506001919050565b506000919050565b610f34610fa2565b6001600160a01b038116610f995760405162461bcd60e51b815260206004820152602660248201527f4f776e61626c653a206e6577206f776e657220697320746865207a65726f206160448201526564647265737360d01b60648201526084016101e3565b610efb81610ffc565b6033546001600160a01b0316331461068f5760405162461bcd60e51b815260206004820181905260248201527f4f776e61626c653a2063616c6c6572206973206e6f7420746865206f776e657260448201526064016101e3565b603380546001600160a01b038381166001600160a01b0319831681179093556040519116919082907f8be0079c531659141344cd1fd0a4f28419497f9722a3daafe3b4186f6b6457e090600090a35050565b600054610100900460ff166110755760405162461bcd60e51b81526004016101e3906113d0565b61068f600054610100900460ff1661109f5760405162461bcd60e51b81526004016101e3906113d0565b61068f33610ffc565b8280548282559060005260206000209081019282156110e3579160200282015b828111156110e35782358255916020019190600101906110c8565b506110ef92915061110d565b5090565b5080546000825590600052602060002090810190610efb91905b5b808211156110ef576000815560010161110e565b6001600160a01b0381168114610efb57600080fd5b60008060006040848603121561114c57600080fd5b833561115781611122565b9250602084013567ffffffffffffffff8082111561117457600080fd5b818601915086601f83011261118857600080fd5b81358181111561119757600080fd5b8760208260051b85010111156111ac57600080fd5b6020830194508093505050509250925092565b600080604083850312156111d257600080fd5b82356111dd81611122565b946020939093013593505050565b6000602082840312156111fd57600080fd5b5035919050565b6020808252825182820181905260009190848201906040850190845b818110156112455783516001600160a01b031683529284019291840191600101611220565b50909695505050505050565b60006020828403121561126357600080fd5b813561126e81611122565b9392505050565b6020808252825182820181905260009190848201906040850190845b8181101561124557835183529284019291840191600101611291565b6020808252601f908201527f696e76616c696420617267756d656e74202d207a65726f206164647265737300604082015260600190565b60208082526025908201527f63616e6e6f742068617665206d6f7265207468616e20313520636c61696d20746040820152646f7069637360d81b606082015260800190565b634e487b7160e01b600052603260045260246000fd5b634e487b7160e01b600052601160045260246000fd5b8181038181111561060b5761060b61133f565b634e487b7160e01b600052603160045260246000fd5b6000600182016113905761139061133f565b5060010190565b6020808252810182905260006001600160fb1b038311156113b757600080fd5b8260051b80856040850137919091016040019392505050565b6020808252602b908201527f496e697469616c697a61626c653a20636f6e7472616374206973206e6f74206960408201526a6e697469616c697a696e6760a81b60608201526080019056fea26469706673582212207b252cee0106e9cf9cc0527ae031dcb70ec26d598cf09ccca4bde64d3cee4c0964736f6c63430008110033",
  "devdoc": {
    "kind": "dev",
    "methods": {
      "addTrustedIssuer(address,uint256[])": {
        "details": "See {ITrustedIssuersRegistry-addTrustedIssuer}."
      },
      "getTrustedIssuerClaimTopics(address)": {
        "details": "See {ITrustedIssuersRegistry-getTrustedIssuerClaimTopics}."
      },
      "getTrustedIssuers()": {
        "details": "See {ITrustedIssuersRegistry-getTrustedIssuers}."
      },
      "getTrustedIssuersForClaimTopic(uint256)": {
        "details": "See {ITrustedIssuersRegistry-getTrustedIssuersForClaimTopic}."
      },
      "hasClaimTopic(address,uint256)": {
        "details": "See {ITrustedIssuersRegistry-hasClaimTopic}."
      },
      "isTrustedIssuer(address)": {
        "details": "See {ITrustedIssuersRegistry-isTrustedIssuer}."
      },
      "owner()": {
        "details": "Returns the address of the current owner."
      },
      "removeTrustedIssuer(address)": {
        "details": "See {ITrustedIssuersRegistry-removeTrustedIssuer}."
      },
      "renounceOwnership()": {
        "details": "Leaves the contract without owner. It will not be possible to call `onlyOwner` functions. Can only be called by the current owner. NOTE: Renouncing ownership will leave the contract without an owner, thereby disabling any functionality that is only available to the owner."
      },
      "transferOwnership(address)": {
        "details": "Transfers ownership of the contract to a new account (`newOwner`). Can only be called by the current owner."
      },
      "updateIssuerClaimTopics(address,uint256[])": {
        "details": "See {ITrustedIssuersRegistry-updateIssuerClaimTopics}."
      }
    },
    "version": 1
  },
  "userdoc": {
    "events": {
      "ClaimTopicsUpdated(address,uint256[])": {
        "notice": "this event is emitted when the set of claim topics is changed for a given trusted issuer.  the event is emitted by the updateIssuerClaimTopics function  `trustedIssuer` is the address of the trusted issuer's ClaimIssuer contract  `claimTopics` is the set of claims that the trusted issuer is allowed to emit"
      },
      "TrustedIssuerAdded(address,uint256[])": {
        "notice": "this event is emitted when a trusted issuer is added in the registry.  the event is emitted by the addTrustedIssuer function  `trustedIssuer` is the address of the trusted issuer's ClaimIssuer contract  `claimTopics` is the set of claims that the trusted issuer is allowed to emit"
      },
      "TrustedIssuerRemoved(address)": {
        "notice": "this event is emitted when a trusted issuer is removed from the registry.  the event is emitted by the removeTrustedIssuer function  `trustedIssuer` is the address of the trusted issuer's ClaimIssuer contract"
      }
    },
    "kind": "user",
    "methods": {},
    "notice": "NOTICE     The T-REX software is licensed under a proprietary license or the GPL v.3.     If you choose to receive it under the GPL v.3 license, the following applies:     T-REX is a suite of smart contracts implementing the ERC-3643 standard and     developed by Tokeny to manage and transfer financial assets on EVM blockchains     Copyright (C) 2023, Tokeny srl.     This program is free software: you can redistribute it and/or modify     it under the terms of the GNU General Public License as published by     the Free Software Foundation, either version 3 of the License, or     (at your option) any later version.     This program is distributed in the hope that it will be useful,     but WITHOUT ANY WARRANTY; without even the implied warranty of     MERCHANTABILITY or FITNESS FOR A PARTICULAR PURPOSE.  See the     GNU General Public License for more details.     You should have received a copy of the GNU General Public License     along with this program.  If not, see <https://www.gnu.org/licenses/>.",
    "version": 1
  },
  "storageLayout": {
    "storage": [
      {
        "astId": 16521,
        "contract": "contracts/TrustedIssuersRegistry.sol:TrustedIssuersRegistry",
        "label": "_initialized",
        "offset": 0,
        "slot": "0",
        "type": "t_uint8"
      },
      {
        "astId": 16524,
        "contract": "contracts/TrustedIssuersRegistry.sol:TrustedIssuersRegistry",
        "label": "_initializing",
        "offset": 1,
        "slot": "0",
        "type": "t_bool"
      },
      {
        "astId": 16721,
        "contract": "contracts/TrustedIssuersRegistry.sol:TrustedIssuersRegistry",
        "label": "__gap",
        "offset": 0,
        "slot": "1",
        "type": "t_array(t_uint256)50_storage"
      },
      {
        "astId": 16729,
        "contract": "contracts/TrustedIssuersRegistry.sol:TrustedIssuersRegistry",
        "label": "_owner",
        "offset": 0,
        "slot": "51",
        "type": "t_address"
      },
      {
        "astId": 16849,
        "contract": "contracts/TrustedIssuersRegistry.sol:TrustedIssuersRegistry",
        "label": "__gap",
        "offset": 0,
        "slot": "52",
        "type": "t_array(t_uint256)49_storage"
      },
      {
        "astId": 16955,
        "contract": "contracts/TrustedIssuersRegistry.sol:TrustedIssuersRegistry",
        "label": "_trustedIssuers",
        "offset": 0,
        "slot": "101",
        "type": "t_array(t_contract(IClaimIssuer)16189)dyn_storage"
      },
      {
        "astId": 16961,
        "contract": "contracts/TrustedIssuersRegistry.sol:TrustedIssuersRegistry",
        "label": "_trustedIssuerClaimTopics",
        "offset": 0,
        "slot": "102",
        "type": "t_mapping(t_address,t_array(t_uint256)dyn_storage)"
      },
      {
        "astId": 16968,
        "contract": "contracts/TrustedIssuersRegistry.sol:TrustedIssuersRegistry",
        "label": "_claimTopicsToTrustedIssuers",
        "offset": 0,
        "slot": "103",
        "type": "t_mapping(t_uint256,t_array(t_contract(IClaimIssuer)16189)dyn_storage)"
      },
      {
        "astId": 16973,
        "contract": "contracts/TrustedIssuersRegistry.sol:TrustedIssuersRegistry",
        "label": "__gap",
        "offset": 0,
        "slot": "104",
        "type": "t_array(t_uint256)49_storage"
      }
    ],
    "types": {
      "t_address": {
        "encoding": "inplace",
        "label": "address",
        "numberOfBytes": "20"
      },
      "t_array(t_contract(IClaimIssuer)16189)dyn_storage": {
        "base": "t_contract(IClaimIssuer)16189",
        "encoding": "dynamic_array",
        "label": "contract IClaimIssuer[]",
        "numberOfBytes": "32"
      },
      "t_array(t_uint256)49_storage": {
        "base": "t_uint256",
        "encoding": "inplace",
        "label": "uint256[49]",
        "numberOfBytes": "1568"
      },
      "t_array(t_uint256)50_storage": {
        "base": "t_uint256",
        "encoding": "inplace",
        "label": "uint256[50]",
        "numberOfBytes": "1600"
      },
      "t_array(t_uint256)dyn_storage": {
        "base": "t_uint256",
        "encoding": "dynamic_array",
        "label": "uint256[]",
        "numberOfBytes": "32"
      },
      "t_bool": {
        "encoding": "inplace",
        "label": "bool",
        "numberOfBytes": "1"
      },
      "t_contract(IClaimIssuer)16189": {
        "encoding": "inplace",
        "label": "contract IClaimIssuer",
        "numberOfBytes": "20"
      },
      "t_mapping(t_address,t_array(t_uint256)dyn_storage)": {
        "encoding": "mapping",
        "key": "t_address",
        "label": "mapping(address => uint256[])",
        "numberOfBytes": "32",
        "value": "t_array(t_uint256)dyn_storage"
      },
      "t_mapping(t_uint256,t_array(t_contract(IClaimIssuer)16189)dyn_storage)": {
        "encoding": "mapping",
        "key": "t_uint256",
        "label": "mapping(uint256 => contract IClaimIssuer[])",
        "numberOfBytes": "32",
        "value": "t_array(t_contract(IClaimIssuer)16189)dyn_storage"
      },
      "t_uint256": {
        "encoding": "inplace",
        "label": "uint256",
        "numberOfBytes": "32"
      },
      "t_uint8": {
        "encoding": "inplace",
        "label": "uint8",
        "numberOfBytes": "1"
      }
    }
  }
}