{
  "address": "0xC1bE40A2698E09d7782361369D3c3058aA3b0Be4",
  "abi": [
    {
      "anonymous": false,
      "inputs": [
        {
          "indexed": true,
          "internalType": "address",
          "name": "identity",
          "type": "address"
        },
        {
          "indexed": false,
          "internalType": "bytes32",
          "name": "name",
          "type": "bytes32"
        },
        {
          "indexed": false,
          "internalType": "bytes",
          "name": "value",
          "type": "bytes"
        },
        {
          "indexed": false,
          "internalType": "uint256",
          "name": "validTo",
          "type": "uint256"
        },
        {
          "indexed": false,
          "internalType": "uint256",
          "name": "previousChange",
          "type": "uint256"
        }
      ],
      "name": "DIDAttributeChanged",
      "type": "event"
    },
    {
      "anonymous": false,
      "inputs": [
        {
          "indexed": true,
          "internalType": "address",
          "name": "identity",
          "type": "address"
        },
        {
          "indexed": false,
          "internalType": "bytes32",
          "name": "delegateType",
          "type": "bytes32"
        },
        {
          "indexed": false,
          "internalType": "bytes32",
          "name": "delegate",
          "type": "bytes32"
        },
        {
          "indexed": false,
          "internalType": "uint256",
          "name": "validTo",
          "type": "uint256"
        },
        {
          "indexed": false,
          "internalType": "uint256",
          "name": "previousChange",
          "type": "uint256"
        }
      ],
      "name": "DIDDelegateChanged",
      "type": "event"
    },
    {
      "anonymous": false,
      "inputs": [
        {
          "indexed": true,
          "internalType": "address",
          "name": "identity",
          "type": "address"
        },
        {
          "indexed": false,
          "internalType": "address",
          "name": "owner",
          "type": "address"
        },
        {
          "indexed": false,
          "internalType": "uint256",
          "name": "previousChange",
          "type": "uint256"
        }
      ],
      "name": "DIDOwnerChanged",
      "type": "event"
    },
    {
      "inputs": [
        {
          "internalType": "address",
          "name": "identity",
          "type": "address"
        },
        {
          "internalType": "bytes32",
          "name": "delegateType",
          "type": "bytes32"
        },
        {
          "internalType": "bytes",
          "name": "publicKey",
          "type": "bytes"
        },
        {
          "internalType": "uint256",
          "name": "validity",
          "type": "uint256"
        }
      ],
      "name": "addDelegate",
      "outputs": [],
      "stateMutability": "nonpayable",
      "type": "function"
    },
    {
      "inputs": [
        {
          "internalType": "address",
          "name": "identity",
          "type": "address"
        },
        {
          "internalType": "address",
          "name": "newOwner",
          "type": "address"
        }
      ],
      "name": "changeOwner",
      "outputs": [],
      "stateMutability": "nonpayable",
      "type": "function"
    },
    {
      "inputs": [
        {
          "internalType": "address",
          "name": "identity",
          "type": "address"
        },
        {
          "internalType": "uint8",
          "name": "sigV",
          "type": "uint8"
        },
        {
          "internalType": "bytes32",
          "name": "sigR",
          "type": "bytes32"
        },
        {
          "internalType": "bytes32",
          "name": "sigS",
          "type": "bytes32"
        },
        {
          "internalType": "address",
          "name": "newOwner",
          "type": "address"
        }
      ],
      "name": "changeOwnerSigned",
      "outputs": [],
      "stateMutability": "nonpayable",
      "type": "function"
    },
    {
      "inputs": [
        {
          "internalType": "address",
          "name": "",
          "type": "address"
        }
      ],
      "name": "changed",
      "outputs": [
        {
          "internalType": "uint256",
          "name": "",
          "type": "uint256"
        }
      ],
      "stateMutability": "view",
      "type": "function"
    },
    {
      "inputs": [
        {
          "internalType": "address",
          "name": "",
          "type": "address"
        },
        {
          "internalType": "bytes32",
          "name": "",
          "type": "bytes32"
        },
        {
          "internalType": "bytes32",
          "name": "",
          "type": "bytes32"
        }
      ],
      "name": "delegates",
      "outputs": [
        {
          "internalType": "uint256",
          "name": "",
          "type": "uint256"
        }
      ],
      "stateMutability": "view",
      "type": "function"
    },
    {
      "inputs": [
        {
          "internalType": "address",
          "name": "identity",
          "type": "address"
        }
      ],
      "name": "identityOwner",
      "outputs": [
        {
          "internalType": "address",
          "name": "",
          "type": "address"
        }
      ],
      "stateMutability": "view",
      "type": "function"
    },
    {
      "inputs": [
        {
          "internalType": "address",
          "name": "",
          "type": "address"
        }
      ],
      "name": "nonce",
      "outputs": [
        {
          "internalType": "uint256",
          "name": "",
          "type": "uint256"
        }
      ],
      "stateMutability": "view",
      "type": "function"
    },
    {
      "inputs": [
        {
          "internalType": "address",
          "name": "",
          "type": "address"
        }
      ],
      "name": "owners",
      "outputs": [
        {
          "internalType": "address",
          "name": "",
          "type": "address"
        }
      ],
      "stateMutability": "view",
      "type": "function"
    },
    {
      "inputs": [
        {
          "internalType": "address",
          "name": "identity",
          "type": "address"
        },
        {
          "internalType": "bytes32",
          "name": "name",
          "type": "bytes32"
        },
        {
          "internalType": "bytes",
          "name": "value",
          "type": "bytes"
        }
      ],
      "name": "revokeAttribute",
      "outputs": [],
      "stateMutability": "nonpayable",
      "type": "function"
    },
    {
      "inputs": [
        {
          "internalType": "address",
          "name": "identity",
          "type": "address"
        },
        {
          "internalType": "uint8",
          "name": "sigV",
          "type": "uint8"
        },
        {
          "internalType": "bytes32",
          "name": "sigR",
          "type": "bytes32"
        },
        {
          "internalType": "bytes32",
          "name": "sigS",
          "type": "bytes32"
        },
        {
          "internalType": "bytes32",
          "name": "name",
          "type": "bytes32"
        },
        {
          "internalType": "bytes",
          "name": "value",
          "type": "bytes"
        }
      ],
      "name": "revokeAttributeSigned",
      "outputs": [],
      "stateMutability": "nonpayable",
      "type": "function"
    },
    {
      "inputs": [
        {
          "internalType": "address",
          "name": "identity",
          "type": "address"
        },
        {
          "internalType": "bytes32",
          "name": "delegateType",
          "type": "bytes32"
        },
        {
          "internalType": "bytes",
          "name": "compressedPublicKey",
          "type": "bytes"
        }
      ],
      "name": "revokeDelegate",
      "outputs": [],
      "stateMutability": "nonpayable",
      "type": "function"
    },
    {
      "inputs": [
        {
          "internalType": "address",
          "name": "identity",
          "type": "address"
        },
        {
          "internalType": "bytes32",
          "name": "name",
          "type": "bytes32"
        },
        {
          "internalType": "bytes",
          "name": "value",
          "type": "bytes"
        },
        {
          "internalType": "uint256",
          "name": "validity",
          "type": "uint256"
        }
      ],
      "name": "setAttribute",
      "outputs": [],
      "stateMutability": "nonpayable",
      "type": "function"
    },
    {
      "inputs": [
        {
          "internalType": "address",
          "name": "identity",
          "type": "address"
        },
        {
          "internalType": "uint8",
          "name": "sigV",
          "type": "uint8"
        },
        {
          "internalType": "bytes32",
          "name": "sigR",
          "type": "bytes32"
        },
        {
          "internalType": "bytes32",
          "name": "sigS",
          "type": "bytes32"
        },
        {
          "internalType": "bytes32",
          "name": "name",
          "type": "bytes32"
        },
        {
          "internalType": "bytes",
          "name": "value",
          "type": "bytes"
        },
        {
          "internalType": "uint256",
          "name": "validity",
          "type": "uint256"
        }
      ],
      "name": "setAttributeSigned",
      "outputs": [],
      "stateMutability": "nonpayable",
      "type": "function"
    },
    {
      "inputs": [
        {
          "internalType": "address",
          "name": "identity",
          "type": "address"
        },
        {
          "internalType": "bytes32",
          "name": "delegateType",
          "type": "bytes32"
        },
        {
          "internalType": "bytes",
          "name": "compressedPublicKey",
          "type": "bytes"
        }
      ],
      "name": "validDelegate",
      "outputs": [
        {
          "internalType": "bool",
          "name": "",
          "type": "bool"
        }
      ],
      "stateMutability": "view",
      "type": "function"
    }
  ],
  "transactionHash": "0xe4032ce7fd6637119171f8abff4c4820bdcca3f978ee32a3c758e26dc7d25ee9",
  "args": [],
  "numDeployments": 2,
  "solcInputHash": "1e96c70dfa1de19ec4af77380165f994",
  "bytecode": "0x608060405234801561001057600080fd5b50611119806100206000396000f3fe608060405234801561001057600080fd5b50600436106100e95760003560e01c80638733d4e81161008c578063e476af5c11610066578063e476af5c1461022a578063f00d4b5d1461023d578063f7f70abc14610250578063f96d0f9f1461026357600080fd5b80638733d4e8146101e1578063a05afa55146101f4578063d758b17d1461021757600080fd5b8063240cf1fa116100c8578063240cf1fa1461015c57806370ae92d21461016f578063730afb6d1461019d5780637ad4b0a4146101ce57600080fd5b8062c023da146100ee578063022914a714610103578063123b5e9814610149575b600080fd5b6101016100fc366004610c22565b610283565b005b61012c610111366004610c79565b6000602081905290815260409020546001600160a01b031681565b6040516001600160a01b0390911681526020015b60405180910390f35b610101610157366004610cac565b610294565b61010161016a366004610d31565b610320565b61018f61017d366004610c79565b60036020526000908152604090205481565b604051908152602001610140565b61018f6101ab366004610d88565b600160209081526000938452604080852082529284528284209052825290205481565b6101016101dc366004610dbb565b6103eb565b61012c6101ef366004610c79565b6103fe565b610207610202366004610c22565b61042e565b6040519015158152602001610140565b610101610225366004610dbb565b6104d8565b610101610238366004610e1a565b6104e5565b61010161024b366004610e94565b61056d565b61010161025e366004610c22565b61057c565b61018f610271366004610c79565b60026020526000908152604090205481565b61028f83338484610588565b505050565b6000601960f81b81306003826102a98d6103fe565b6001600160a01b03166001600160a01b03168152602001908152602001600020548b8888886040516020016102e5989796959493929190610eeb565b6040516020818303038152906040528051906020012090506103168861030e8a8a8a8a87610644565b868686610733565b5050505050505050565b6000601960f81b81306003826103358b6103fe565b6001600160a01b0316815260208082019290925260409081016000205481516001600160f81b0319968716818501529490951660218501526001600160601b0319606093841b8116602286015260368501959095528a831b851660568501526a31b430b733b2a7bbb732b960a91b606a8501529186901b90931660758301528051606981840301815260899092019052805191012090506103e3866103dd8188888887610644565b846107fb565b505050505050565b6103f88433858585610733565b50505050565b6001600160a01b0380821660009081526020819052604081205490911680156104275792915050565b5090919050565b60008060015b6020811161048157610447816008610f87565b84828151811061045957610459610fa4565b01602001516001600160f81b031916901c91909117908061047981610fba565b915050610434565b506001600160a01b0394909416600090815260016020908152604080832081518084019790975281518088038401815296820182528651968301969096208352948152848220958252949094525050902054421090565b6103f884338585856108c3565b6000601960f81b81306003826104fa8c6103fe565b6001600160a01b03166001600160a01b03168152602001908152602001600020548a87876040516020016105349796959493929190610fd3565b6040516020818303038152906040528051906020012090506105648761055d8989898987610644565b8585610588565b50505050505050565b6105788233836107fb565b5050565b61028f83338484610a33565b8383610593826103fe565b6001600160a01b0316816001600160a01b0316146105cc5760405162461bcd60e51b81526004016105c390611055565b60405180910390fd5b6001600160a01b0386166000818152600260205260408082205490517f18ab6b2ae3d64306c00ce663125f2bd680e441a098de1635bd7ad8b0d44965e492610619928992899291906110a4565b60405180910390a25050506001600160a01b0390921660009081526002602052604090204390555050565b6040805160008082526020820180845284905260ff8716928201929092526060810185905260808101849052819060019060a0016020604051602081039080840390855afa15801561069a573d6000803e3d6000fd5b5050506020604051035190506106af876103fe565b6001600160a01b0316816001600160a01b0316146106ff5760405162461bcd60e51b815260206004820152600d60248201526c6261645f7369676e617475726560981b60448201526064016105c3565b6001600160a01b038116600090815260036020526040812080549161072383610fba565b9091555090979650505050505050565b848461073e826103fe565b6001600160a01b0316816001600160a01b03161461076e5760405162461bcd60e51b81526004016105c390611055565b6001600160a01b0387167f18ab6b2ae3d64306c00ce663125f2bd680e441a098de1635bd7ad8b0d44965e486866107a587426110d0565b6001600160a01b038c16600090815260026020526040908190205490516107cf94939291906110a4565b60405180910390a25050506001600160a01b039093166000908152600260205260409020439055505050565b8282610806826103fe565b6001600160a01b0316816001600160a01b0316146108365760405162461bcd60e51b81526004016105c390611055565b6001600160a01b0385811660008181526020818152604080832080546001600160a01b031916958916958617905560028252918290205482519485529084015290917f38a5a6e68f30ed1ab45860a4afb34bcb2fc00f22ca462d249b8a8d40cda6f7a3910160405180910390a2505050506001600160a01b03166000908152600260205260409020439055565b84846108ce826103fe565b6001600160a01b0316816001600160a01b0316146108fe5760405162461bcd60e51b81526004016105c390611055565b600060015b6020811161095057610916816008610f87565b86828151811061092857610928610fa4565b01602001516001600160f81b031916901c91909117908061094881610fba565b915050610903565b5061095b84426110d0565b6001600160a01b038916600081815260016020908152604080832081518084018d90528251808203850181529083018352805190840120845282528083208684529091529020919091557f19e9b873427dfc7cf1ed7c3aab71b4951820703f8bcb5e80b2dd6d22d939ffc287836109d288426110d0565b6001600160a01b038d1660009081526002602090815260409182902054825195865290850193909352830152606082015260800160405180910390a25050506001600160a01b03909416600090815260026020526040902043905550505050565b8383610a3e826103fe565b6001600160a01b0316816001600160a01b031614610a6e5760405162461bcd60e51b81526004016105c390611055565b600060015b60208111610ac057610a86816008610f87565b858281518110610a9857610a98610fa4565b01602001516001600160f81b031916901c919091179080610ab881610fba565b915050610a73565b506001600160a01b038716600081815260016020908152604080832081518084018b9052825180820385018152818401808552815191860191909120865291845282852087865284528285204290819055868652600290945291909320549289905260608101859052608081019190915260a08101919091527f19e9b873427dfc7cf1ed7c3aab71b4951820703f8bcb5e80b2dd6d22d939ffc29060c0016107cf565b80356001600160a01b0381168114610b7a57600080fd5b919050565b634e487b7160e01b600052604160045260246000fd5b600082601f830112610ba657600080fd5b813567ffffffffffffffff80821115610bc157610bc1610b7f565b604051601f8301601f19908116603f01168101908282118183101715610be957610be9610b7f565b81604052838152866020858801011115610c0257600080fd5b836020870160208301376000602085830101528094505050505092915050565b600080600060608486031215610c3757600080fd5b610c4084610b63565b925060208401359150604084013567ffffffffffffffff811115610c6357600080fd5b610c6f86828701610b95565b9150509250925092565b600060208284031215610c8b57600080fd5b610c9482610b63565b9392505050565b803560ff81168114610b7a57600080fd5b600080600080600080600060e0888a031215610cc757600080fd5b610cd088610b63565b9650610cde60208901610c9b565b955060408801359450606088013593506080880135925060a088013567ffffffffffffffff811115610d0f57600080fd5b610d1b8a828b01610b95565b92505060c0880135905092959891949750929550565b600080600080600060a08688031215610d4957600080fd5b610d5286610b63565b9450610d6060208701610c9b565b93506040860135925060608601359150610d7c60808701610b63565b90509295509295909350565b600080600060608486031215610d9d57600080fd5b610da684610b63565b95602085013595506040909401359392505050565b60008060008060808587031215610dd157600080fd5b610dda85610b63565b935060208501359250604085013567ffffffffffffffff811115610dfd57600080fd5b610e0987828801610b95565b949793965093946060013593505050565b60008060008060008060c08789031215610e3357600080fd5b610e3c87610b63565b9550610e4a60208801610c9b565b945060408701359350606087013592506080870135915060a087013567ffffffffffffffff811115610e7b57600080fd5b610e8789828a01610b95565b9150509295509295509295565b60008060408385031215610ea757600080fd5b610eb083610b63565b9150610ebe60208401610b63565b90509250929050565b60005b83811015610ee2578181015183820152602001610eca565b50506000910152565b6001600160f81b03198981168252881660018201526001600160601b0319606088811b821660028401526016830188905286901b1660368201526b73657441747472696275746560a01b604a820152605681018490528251600090610f57816076850160208801610ec7565b607692019182019290925260960198975050505050505050565b634e487b7160e01b600052601160045260246000fd5b8082028115828204841417610f9e57610f9e610f71565b92915050565b634e487b7160e01b600052603260045260246000fd5b600060018201610fcc57610fcc610f71565b5060010190565b6001600160f81b03198881168252871660018201526001600160601b0319606087811b821660028401526016830187905285901b1660368201526e7265766f6b6541747472696275746560881b604a820152605981018390528151600090611042816079850160208701610ec7565b9190910160790198975050505050505050565b6020808252600990820152683130b22fb0b1ba37b960b91b604082015260600190565b60008151808452611090816020860160208601610ec7565b601f01601f19169290920160200192915050565b8481526080602082015260006110bd6080830186611078565b6040830194909452506060015292915050565b80820180821115610f9e57610f9e610f7156fea2646970667358221220664437c1d08b6746fb913bd8d56be02f1d0c4ec396f1dc1f8df3e91bbd50ed7b64736f6c63430008110033",
  "devdoc": {
    "kind": "dev",
    "methods": {},
    "version": 1
  },
  "userdoc": {
    "kind": "user",
    "methods": {},
    "version": 1
  },
  "storageLayout": {
    "storage": [
      {
        "astId": 5,
        "contract": "contracts/EthereumDIDRegistry.sol:EthereumDIDRegistry",
        "label": "owners",
        "offset": 0,
        "slot": "0",
        "type": "t_mapping(t_address,t_address)"
      },
      {
        "astId": 13,
        "contract": "contracts/EthereumDIDRegistry.sol:EthereumDIDRegistry",
        "label": "delegates",
        "offset": 0,
        "slot": "1",
        "type": "t_mapping(t_address,t_mapping(t_bytes32,t_mapping(t_bytes32,t_uint256)))"
      },
      {
        "astId": 17,
        "contract": "contracts/EthereumDIDRegistry.sol:EthereumDIDRegistry",
        "label": "changed",
        "offset": 0,
        "slot": "2",
        "type": "t_mapping(t_address,t_uint256)"
      },
      {
        "astId": 21,
        "contract": "contracts/EthereumDIDRegistry.sol:EthereumDIDRegistry",
        "label": "nonce",
        "offset": 0,
        "slot": "3",
        "type": "t_mapping(t_address,t_uint256)"
      }
    ],
    "types": {
      "t_address": {
        "encoding": "inplace",
        "label": "address",
        "numberOfBytes": "20"
      },
      "t_bytes32": {
        "encoding": "inplace",
        "label": "bytes32",
        "numberOfBytes": "32"
      },
      "t_mapping(t_address,t_address)": {
        "encoding": "mapping",
        "key": "t_address",
        "label": "mapping(address => address)",
        "numberOfBytes": "32",
        "value": "t_address"
      },
      "t_mapping(t_address,t_mapping(t_bytes32,t_mapping(t_bytes32,t_uint256)))": {
        "encoding": "mapping",
        "key": "t_address",
        "label": "mapping(address => mapping(bytes32 => mapping(bytes32 => uint256)))",
        "numberOfBytes": "32",
        "value": "t_mapping(t_bytes32,t_mapping(t_bytes32,t_uint256))"
      },
      "t_mapping(t_address,t_uint256)": {
        "encoding": "mapping",
        "key": "t_address",
        "label": "mapping(address => uint256)",
        "numberOfBytes": "32",
        "value": "t_uint256"
      },
      "t_mapping(t_bytes32,t_mapping(t_bytes32,t_uint256))": {
        "encoding": "mapping",
        "key": "t_bytes32",
        "label": "mapping(bytes32 => mapping(bytes32 => uint256))",
        "numberOfBytes": "32",
        "value": "t_mapping(t_bytes32,t_uint256)"
      },
      "t_mapping(t_bytes32,t_uint256)": {
        "encoding": "mapping",
        "key": "t_bytes32",
        "label": "mapping(bytes32 => uint256)",
        "numberOfBytes": "32",
        "value": "t_uint256"
      },
      "t_uint256": {
        "encoding": "inplace",
        "label": "uint256",
        "numberOfBytes": "32"
      }
    }
  }
}