{
  "address": "0x87D8FA62875559F391132887570c62B2fE57a622",
  "abi": [
    {
      "anonymous": false,
      "inputs": [
        {
          "indexed": true,
          "internalType": "address",
          "name": "identity",
          "type": "address"
        },
        {
          "indexed": false,
          "internalType": "bytes32",
          "name": "name",
          "type": "bytes32"
        },
        {
          "indexed": false,
          "internalType": "bytes",
          "name": "value",
          "type": "bytes"
        },
        {
          "indexed": false,
          "internalType": "uint256",
          "name": "validTo",
          "type": "uint256"
        },
        {
          "indexed": false,
          "internalType": "uint256",
          "name": "previousChange",
          "type": "uint256"
        }
      ],
      "name": "DIDAttributeChanged",
      "type": "event"
    },
    {
      "anonymous": false,
      "inputs": [
        {
          "indexed": true,
          "internalType": "address",
          "name": "identity",
          "type": "address"
        },
        {
          "indexed": false,
          "internalType": "bytes32",
          "name": "delegateType",
          "type": "bytes32"
        },
        {
          "indexed": false,
          "internalType": "bytes32",
          "name": "delegate",
          "type": "bytes32"
        },
        {
          "indexed": false,
          "internalType": "uint256",
          "name": "validTo",
          "type": "uint256"
        },
        {
          "indexed": false,
          "internalType": "uint256",
          "name": "previousChange",
          "type": "uint256"
        }
      ],
      "name": "DIDDelegateChanged",
      "type": "event"
    },
    {
      "anonymous": false,
      "inputs": [
        {
          "indexed": true,
          "internalType": "address",
          "name": "identity",
          "type": "address"
        },
        {
          "indexed": false,
          "internalType": "address",
          "name": "owner",
          "type": "address"
        },
        {
          "indexed": false,
          "internalType": "uint256",
          "name": "previousChange",
          "type": "uint256"
        }
      ],
      "name": "DIDOwnerChanged",
      "type": "event"
    },
    {
      "anonymous": false,
      "inputs": [
        {
          "indexed": false,
          "internalType": "uint256",
          "name": "returnValue",
          "type": "uint256"
        }
      ],
      "name": "P256VerifyResult",
      "type": "event"
    },
    {
      "inputs": [
        {
          "internalType": "address",
          "name": "DIDIssuerAddress",
          "type": "address"
        },
        {
          "internalType": "bytes32",
          "name": "delegateType",
          "type": "bytes32"
        },
        {
          "internalType": "bytes",
          "name": "SignerCompressedPublicKey",
          "type": "bytes"
        },
        {
          "internalType": "uint256",
          "name": "validity",
          "type": "uint256"
        }
      ],
      "name": "addDelegate",
      "outputs": [],
      "stateMutability": "nonpayable",
      "type": "function"
    },
    {
      "inputs": [],
      "name": "callP256Verify",
      "outputs": [
        {
          "internalType": "uint256",
          "name": "returnValue",
          "type": "uint256"
        }
      ],
      "stateMutability": "nonpayable",
      "type": "function"
    },
    {
      "inputs": [
        {
          "internalType": "address",
          "name": "identity",
          "type": "address"
        },
        {
          "internalType": "address",
          "name": "newOwner",
          "type": "address"
        }
      ],
      "name": "changeOwner",
      "outputs": [],
      "stateMutability": "nonpayable",
      "type": "function"
    },
    {
      "inputs": [
        {
          "internalType": "address",
          "name": "identity",
          "type": "address"
        },
        {
          "internalType": "uint8",
          "name": "sigV",
          "type": "uint8"
        },
        {
          "internalType": "bytes32",
          "name": "sigR",
          "type": "bytes32"
        },
        {
          "internalType": "bytes32",
          "name": "sigS",
          "type": "bytes32"
        },
        {
          "internalType": "address",
          "name": "newOwner",
          "type": "address"
        }
      ],
      "name": "changeOwnerSigned",
      "outputs": [],
      "stateMutability": "nonpayable",
      "type": "function"
    },
    {
      "inputs": [
        {
          "internalType": "address",
          "name": "",
          "type": "address"
        }
      ],
      "name": "changed",
      "outputs": [
        {
          "internalType": "uint256",
          "name": "",
          "type": "uint256"
        }
      ],
      "stateMutability": "view",
      "type": "function"
    },
    {
      "inputs": [
        {
          "internalType": "address",
          "name": "",
          "type": "address"
        },
        {
          "internalType": "bytes32",
          "name": "",
          "type": "bytes32"
        },
        {
          "internalType": "bytes32",
          "name": "",
          "type": "bytes32"
        }
      ],
      "name": "delegates",
      "outputs": [
        {
          "internalType": "uint256",
          "name": "",
          "type": "uint256"
        }
      ],
      "stateMutability": "view",
      "type": "function"
    },
    {
      "inputs": [
        {
          "internalType": "address",
          "name": "identity",
          "type": "address"
        }
      ],
      "name": "identityOwner",
      "outputs": [
        {
          "internalType": "address",
          "name": "",
          "type": "address"
        }
      ],
      "stateMutability": "view",
      "type": "function"
    },
    {
      "inputs": [
        {
          "internalType": "address",
          "name": "",
          "type": "address"
        }
      ],
      "name": "nonce",
      "outputs": [
        {
          "internalType": "uint256",
          "name": "",
          "type": "uint256"
        }
      ],
      "stateMutability": "view",
      "type": "function"
    },
    {
      "inputs": [
        {
          "internalType": "address",
          "name": "",
          "type": "address"
        }
      ],
      "name": "owners",
      "outputs": [
        {
          "internalType": "address",
          "name": "",
          "type": "address"
        }
      ],
      "stateMutability": "view",
      "type": "function"
    },
    {
      "inputs": [
        {
          "internalType": "address",
          "name": "identity",
          "type": "address"
        },
        {
          "internalType": "bytes32",
          "name": "name",
          "type": "bytes32"
        },
        {
          "internalType": "bytes",
          "name": "value",
          "type": "bytes"
        }
      ],
      "name": "revokeAttribute",
      "outputs": [],
      "stateMutability": "nonpayable",
      "type": "function"
    },
    {
      "inputs": [
        {
          "internalType": "address",
          "name": "identity",
          "type": "address"
        },
        {
          "internalType": "uint8",
          "name": "sigV",
          "type": "uint8"
        },
        {
          "internalType": "bytes32",
          "name": "sigR",
          "type": "bytes32"
        },
        {
          "internalType": "bytes32",
          "name": "sigS",
          "type": "bytes32"
        },
        {
          "internalType": "bytes32",
          "name": "name",
          "type": "bytes32"
        },
        {
          "internalType": "bytes",
          "name": "value",
          "type": "bytes"
        }
      ],
      "name": "revokeAttributeSigned",
      "outputs": [],
      "stateMutability": "nonpayable",
      "type": "function"
    },
    {
      "inputs": [
        {
          "internalType": "address",
          "name": "identity",
          "type": "address"
        },
        {
          "internalType": "bytes32",
          "name": "delegateType",
          "type": "bytes32"
        },
        {
          "internalType": "bytes",
          "name": "compressedPublicKey",
          "type": "bytes"
        }
      ],
      "name": "revokeDelegate",
      "outputs": [],
      "stateMutability": "nonpayable",
      "type": "function"
    },
    {
      "inputs": [
        {
          "internalType": "address",
          "name": "identity",
          "type": "address"
        },
        {
          "internalType": "bytes32",
          "name": "name",
          "type": "bytes32"
        },
        {
          "internalType": "bytes",
          "name": "value",
          "type": "bytes"
        },
        {
          "internalType": "uint256",
          "name": "validity",
          "type": "uint256"
        }
      ],
      "name": "setAttribute",
      "outputs": [],
      "stateMutability": "nonpayable",
      "type": "function"
    },
    {
      "inputs": [
        {
          "internalType": "address",
          "name": "identity",
          "type": "address"
        },
        {
          "internalType": "uint8",
          "name": "sigV",
          "type": "uint8"
        },
        {
          "internalType": "bytes32",
          "name": "sigR",
          "type": "bytes32"
        },
        {
          "internalType": "bytes32",
          "name": "sigS",
          "type": "bytes32"
        },
        {
          "internalType": "bytes32",
          "name": "name",
          "type": "bytes32"
        },
        {
          "internalType": "bytes",
          "name": "value",
          "type": "bytes"
        },
        {
          "internalType": "uint256",
          "name": "validity",
          "type": "uint256"
        }
      ],
      "name": "setAttributeSigned",
      "outputs": [],
      "stateMutability": "nonpayable",
      "type": "function"
    },
    {
      "inputs": [
        {
          "internalType": "address",
          "name": "identity",
          "type": "address"
        },
        {
          "internalType": "bytes32",
          "name": "delegateType",
          "type": "bytes32"
        },
        {
          "internalType": "bytes",
          "name": "compressedPublicKey",
          "type": "bytes"
        }
      ],
      "name": "validDelegate",
      "outputs": [
        {
          "internalType": "bool",
          "name": "",
          "type": "bool"
        }
      ],
      "stateMutability": "view",
      "type": "function"
    }
  ],
  "transactionHash": "0x80a9e19d8b14ac1066e5a696d37ee277bedf27a9f65546ffb86bc0000d125817",
  "args": [],
  "numDeployments": 4,
  "solcInputHash": "3a3a2f2200bd1056fce799a3fa6b650a",
  "bytecode": "0x608060405234801561001057600080fd5b50611240806100206000396000f3fe608060405234801561001057600080fd5b50600436106100f45760003560e01c80638733d4e811610097578063f00d4b5d11610066578063f00d4b5d14610248578063f5ce9d181461025b578063f7f70abc14610263578063f96d0f9f1461027657600080fd5b80638733d4e8146101ec578063a05afa55146101ff578063d758b17d14610222578063e476af5c1461023557600080fd5b8063240cf1fa116100d3578063240cf1fa1461016757806370ae92d21461017a578063730afb6d146101a85780637ad4b0a4146101d957600080fd5b8062c023da146100f9578063022914a71461010e578063123b5e9814610154575b600080fd5b61010c610107366004610ca9565b610296565b005b61013761011c366004610d00565b6000602081905290815260409020546001600160a01b031681565b6040516001600160a01b0390911681526020015b60405180910390f35b61010c610162366004610d33565b6102a7565b61010c610175366004610db8565b610333565b61019a610188366004610d00565b60036020526000908152604090205481565b60405190815260200161014b565b61019a6101b6366004610e0f565b600160209081526000938452604080852082529284528284209052825290205481565b61010c6101e7366004610e42565b6103fe565b6101376101fa366004610d00565b610411565b61021261020d366004610ca9565b610441565b604051901515815260200161014b565b61010c610230366004610e42565b6104eb565b61010c610243366004610ea1565b6104f8565b61010c610256366004610f1b565b610580565b61019a61058f565b61010c610271366004610ca9565b610603565b61019a610284366004610d00565b60026020526000908152604090205481565b6102a28333848461060f565b505050565b6000601960f81b81306003826102bc8d610411565b6001600160a01b03166001600160a01b03168152602001908152602001600020548b8888886040516020016102f8989796959493929190610f72565b604051602081830303815290604052805190602001209050610329886103218a8a8a8a876106cb565b8686866107ba565b5050505050505050565b6000601960f81b81306003826103488b610411565b6001600160a01b0316815260208082019290925260409081016000205481516001600160f81b0319968716818501529490951660218501526001600160601b0319606093841b8116602286015260368501959095528a831b851660568501526a31b430b733b2a7bbb732b960a91b606a8501529186901b90931660758301528051606981840301815260899092019052805191012090506103f6866103f081888888876106cb565b84610882565b505050505050565b61040b84338585856107ba565b50505050565b6001600160a01b03808216600090815260208190526040812054909116801561043a5792915050565b5090919050565b60008060015b602081116104945761045a81600861100e565b84828151811061046c5761046c61102b565b01602001516001600160f81b031916901c91909117908061048c81611041565b915050610447565b506001600160a01b0394909416600090815260016020908152604080832081518084019790975281518088038401815296820182528651968301969096208352948152848220958252949094525050902054421090565b61040b843385858561094a565b6000601960f81b813060038261050d8c610411565b6001600160a01b03166001600160a01b03168152602001908152602001600020548a8787604051602001610547979695949392919061105a565b6040516020818303038152906040528051906020012090506105778761057089898989876106cb565b858561060f565b50505050505050565b61058b823383610882565b5050565b60008060006040518060c0016040528060a0815260200161116b60a091399050602060008251602084016101005afa915060005192507f85f5751e685a26274fb3e776155fd0ba7633034ddff9ba29a3d850c1acdce63e836040516105f691815260200190565b60405180910390a1505090565b6102a283338484610aba565b838361061a82610411565b6001600160a01b0316816001600160a01b0316146106535760405162461bcd60e51b815260040161064a906110dc565b60405180910390fd5b6001600160a01b0386166000818152600260205260408082205490517f18ab6b2ae3d64306c00ce663125f2bd680e441a098de1635bd7ad8b0d44965e4926106a09289928992919061112b565b60405180910390a25050506001600160a01b0390921660009081526002602052604090204390555050565b6040805160008082526020820180845284905260ff8716928201929092526060810185905260808101849052819060019060a0016020604051602081039080840390855afa158015610721573d6000803e3d6000fd5b50505060206040510351905061073687610411565b6001600160a01b0316816001600160a01b0316146107865760405162461bcd60e51b815260206004820152600d60248201526c6261645f7369676e617475726560981b604482015260640161064a565b6001600160a01b03811660009081526003602052604081208054916107aa83611041565b9091555090979650505050505050565b84846107c582610411565b6001600160a01b0316816001600160a01b0316146107f55760405162461bcd60e51b815260040161064a906110dc565b6001600160a01b0387167f18ab6b2ae3d64306c00ce663125f2bd680e441a098de1635bd7ad8b0d44965e4868661082c8742611157565b6001600160a01b038c1660009081526002602052604090819020549051610856949392919061112b565b60405180910390a25050506001600160a01b039093166000908152600260205260409020439055505050565b828261088d82610411565b6001600160a01b0316816001600160a01b0316146108bd5760405162461bcd60e51b815260040161064a906110dc565b6001600160a01b0385811660008181526020818152604080832080546001600160a01b031916958916958617905560028252918290205482519485529084015290917f38a5a6e68f30ed1ab45860a4afb34bcb2fc00f22ca462d249b8a8d40cda6f7a3910160405180910390a2505050506001600160a01b03166000908152600260205260409020439055565b848461095582610411565b6001600160a01b0316816001600160a01b0316146109855760405162461bcd60e51b815260040161064a906110dc565b600060015b602081116109d75761099d81600861100e565b8682815181106109af576109af61102b565b01602001516001600160f81b031916901c9190911790806109cf81611041565b91505061098a565b506109e28442611157565b6001600160a01b038916600081815260016020908152604080832081518084018d90528251808203850181529083018352805190840120845282528083208684529091529020919091557f19e9b873427dfc7cf1ed7c3aab71b4951820703f8bcb5e80b2dd6d22d939ffc28783610a598842611157565b6001600160a01b038d1660009081526002602090815260409182902054825195865290850193909352830152606082015260800160405180910390a25050506001600160a01b03909416600090815260026020526040902043905550505050565b8383610ac582610411565b6001600160a01b0316816001600160a01b031614610af55760405162461bcd60e51b815260040161064a906110dc565b600060015b60208111610b4757610b0d81600861100e565b858281518110610b1f57610b1f61102b565b01602001516001600160f81b031916901c919091179080610b3f81611041565b915050610afa565b506001600160a01b038716600081815260016020908152604080832081518084018b9052825180820385018152818401808552815191860191909120865291845282852087865284528285204290819055868652600290945291909320549289905260608101859052608081019190915260a08101919091527f19e9b873427dfc7cf1ed7c3aab71b4951820703f8bcb5e80b2dd6d22d939ffc29060c001610856565b80356001600160a01b0381168114610c0157600080fd5b919050565b634e487b7160e01b600052604160045260246000fd5b600082601f830112610c2d57600080fd5b813567ffffffffffffffff80821115610c4857610c48610c06565b604051601f8301601f19908116603f01168101908282118183101715610c7057610c70610c06565b81604052838152866020858801011115610c8957600080fd5b836020870160208301376000602085830101528094505050505092915050565b600080600060608486031215610cbe57600080fd5b610cc784610bea565b925060208401359150604084013567ffffffffffffffff811115610cea57600080fd5b610cf686828701610c1c565b9150509250925092565b600060208284031215610d1257600080fd5b610d1b82610bea565b9392505050565b803560ff81168114610c0157600080fd5b600080600080600080600060e0888a031215610d4e57600080fd5b610d5788610bea565b9650610d6560208901610d22565b955060408801359450606088013593506080880135925060a088013567ffffffffffffffff811115610d9657600080fd5b610da28a828b01610c1c565b92505060c0880135905092959891949750929550565b600080600080600060a08688031215610dd057600080fd5b610dd986610bea565b9450610de760208701610d22565b93506040860135925060608601359150610e0360808701610bea565b90509295509295909350565b600080600060608486031215610e2457600080fd5b610e2d84610bea565b95602085013595506040909401359392505050565b60008060008060808587031215610e5857600080fd5b610e6185610bea565b935060208501359250604085013567ffffffffffffffff811115610e8457600080fd5b610e9087828801610c1c565b949793965093946060013593505050565b60008060008060008060c08789031215610eba57600080fd5b610ec387610bea565b9550610ed160208801610d22565b945060408701359350606087013592506080870135915060a087013567ffffffffffffffff811115610f0257600080fd5b610f0e89828a01610c1c565b9150509295509295509295565b60008060408385031215610f2e57600080fd5b610f3783610bea565b9150610f4560208401610bea565b90509250929050565b60005b83811015610f69578181015183820152602001610f51565b50506000910152565b6001600160f81b03198981168252881660018201526001600160601b0319606088811b821660028401526016830188905286901b1660368201526b73657441747472696275746560a01b604a820152605681018490528251600090610fde816076850160208801610f4e565b607692019182019290925260960198975050505050505050565b634e487b7160e01b600052601160045260246000fd5b808202811582820484141761102557611025610ff8565b92915050565b634e487b7160e01b600052603260045260246000fd5b60006001820161105357611053610ff8565b5060010190565b6001600160f81b03198881168252871660018201526001600160601b0319606087811b821660028401526016830187905285901b1660368201526e7265766f6b6541747472696275746560881b604a8201526059810183905281516000906110c9816079850160208701610f4e565b9190910160790198975050505050505050565b6020808252600990820152683130b22fb0b1ba37b960b91b604082015260600190565b60008151808452611117816020860160208601610f4e565b601f01601f19169290920160200192915050565b84815260806020820152600061114460808301866110ff565b6040830194909452506060015292915050565b8082018082111561102557611025610ff856fe4cee90eb86eaa050036147a12d49004b6b9c72bd725d39d4785011fe190f0b4da73bd4903f0ce3b639bbbf6e8e80d16931ff4bcf5993d58468e8fb19086e8cac36dbcd03009df8c59286b162af3bd7fcc0450c9aa81be5d10d312af6c66b1d604aebd3099c618202fcfe16ae7770b0c49ab5eadf74b754204a3bb6060e44eff37618b065f9832de4ca6ca971a7a1adc826d0f7c00181a5fb2ddf79ae00b4e10ea264697066735822122065365e95a7771cb14d9c07304f6bcf05b363273b76afe817e1ddd7b8e2705e1864736f6c63430008110033",
  "devdoc": {
    "kind": "dev",
    "methods": {},
    "version": 1
  },
  "userdoc": {
    "kind": "user",
    "methods": {},
    "version": 1
  },
  "storageLayout": {
    "storage": [
      {
        "astId": 5,
        "contract": "contracts/EthereumDIDRegistry.sol:EthereumDIDRegistry",
        "label": "owners",
        "offset": 0,
        "slot": "0",
        "type": "t_mapping(t_address,t_address)"
      },
      {
        "astId": 13,
        "contract": "contracts/EthereumDIDRegistry.sol:EthereumDIDRegistry",
        "label": "delegates",
        "offset": 0,
        "slot": "1",
        "type": "t_mapping(t_address,t_mapping(t_bytes32,t_mapping(t_bytes32,t_uint256)))"
      },
      {
        "astId": 17,
        "contract": "contracts/EthereumDIDRegistry.sol:EthereumDIDRegistry",
        "label": "changed",
        "offset": 0,
        "slot": "2",
        "type": "t_mapping(t_address,t_uint256)"
      },
      {
        "astId": 21,
        "contract": "contracts/EthereumDIDRegistry.sol:EthereumDIDRegistry",
        "label": "nonce",
        "offset": 0,
        "slot": "3",
        "type": "t_mapping(t_address,t_uint256)"
      }
    ],
    "types": {
      "t_address": {
        "encoding": "inplace",
        "label": "address",
        "numberOfBytes": "20"
      },
      "t_bytes32": {
        "encoding": "inplace",
        "label": "bytes32",
        "numberOfBytes": "32"
      },
      "t_mapping(t_address,t_address)": {
        "encoding": "mapping",
        "key": "t_address",
        "label": "mapping(address => address)",
        "numberOfBytes": "32",
        "value": "t_address"
      },
      "t_mapping(t_address,t_mapping(t_bytes32,t_mapping(t_bytes32,t_uint256)))": {
        "encoding": "mapping",
        "key": "t_address",
        "label": "mapping(address => mapping(bytes32 => mapping(bytes32 => uint256)))",
        "numberOfBytes": "32",
        "value": "t_mapping(t_bytes32,t_mapping(t_bytes32,t_uint256))"
      },
      "t_mapping(t_address,t_uint256)": {
        "encoding": "mapping",
        "key": "t_address",
        "label": "mapping(address => uint256)",
        "numberOfBytes": "32",
        "value": "t_uint256"
      },
      "t_mapping(t_bytes32,t_mapping(t_bytes32,t_uint256))": {
        "encoding": "mapping",
        "key": "t_bytes32",
        "label": "mapping(bytes32 => mapping(bytes32 => uint256))",
        "numberOfBytes": "32",
        "value": "t_mapping(t_bytes32,t_uint256)"
      },
      "t_mapping(t_bytes32,t_uint256)": {
        "encoding": "mapping",
        "key": "t_bytes32",
        "label": "mapping(bytes32 => uint256)",
        "numberOfBytes": "32",
        "value": "t_uint256"
      },
      "t_uint256": {
        "encoding": "inplace",
        "label": "uint256",
        "numberOfBytes": "32"
      }
    }
  }
}